{
  "_format": "hh-sol-artifact-1",
  "contractName": "RealEstateToken",
  "sourceName": "contracts/RealEstateToken.sol",
  "abi": [
    {
      "inputs": [],
      "stateMutability": "nonpayable",
      "type": "constructor"
    },
    {
      "inputs": [
        {
          "internalType": "address",
          "name": "sender",
          "type": "address"
        },
        {
          "internalType": "uint256",
          "name": "tokenId",
          "type": "uint256"
        },
        {
          "internalType": "address",
          "name": "owner",
          "type": "address"
        }
      ],
      "name": "ERC721IncorrectOwner",
      "type": "error"
    },
    {
      "inputs": [
        {
          "internalType": "address",
          "name": "operator",
          "type": "address"
        },
        {
          "internalType": "uint256",
          "name": "tokenId",
          "type": "uint256"
        }
      ],
      "name": "ERC721InsufficientApproval",
      "type": "error"
    },
    {
      "inputs": [
        {
          "internalType": "address",
          "name": "approver",
          "type": "address"
        }
      ],
      "name": "ERC721InvalidApprover",
      "type": "error"
    },
    {
      "inputs": [
        {
          "internalType": "address",
          "name": "operator",
          "type": "address"
        }
      ],
      "name": "ERC721InvalidOperator",
      "type": "error"
    },
    {
      "inputs": [
        {
          "internalType": "address",
          "name": "owner",
          "type": "address"
        }
      ],
      "name": "ERC721InvalidOwner",
      "type": "error"
    },
    {
      "inputs": [
        {
          "internalType": "address",
          "name": "receiver",
          "type": "address"
        }
      ],
      "name": "ERC721InvalidReceiver",
      "type": "error"
    },
    {
      "inputs": [
        {
          "internalType": "address",
          "name": "sender",
          "type": "address"
        }
      ],
      "name": "ERC721InvalidSender",
      "type": "error"
    },
    {
      "inputs": [
        {
          "internalType": "uint256",
          "name": "tokenId",
          "type": "uint256"
        }
      ],
      "name": "ERC721NonexistentToken",
      "type": "error"
    },
    {
      "inputs": [
        {
          "internalType": "address",
          "name": "owner",
          "type": "address"
        }
      ],
      "name": "OwnableInvalidOwner",
      "type": "error"
    },
    {
      "inputs": [
        {
          "internalType": "address",
          "name": "account",
          "type": "address"
        }
      ],
      "name": "OwnableUnauthorizedAccount",
      "type": "error"
    },
    {
      "anonymous": false,
      "inputs": [
        {
          "indexed": true,
          "internalType": "address",
          "name": "owner",
          "type": "address"
        },
        {
          "indexed": true,
          "internalType": "address",
          "name": "approved",
          "type": "address"
        },
        {
          "indexed": true,
          "internalType": "uint256",
          "name": "tokenId",
          "type": "uint256"
        }
      ],
      "name": "Approval",
      "type": "event"
    },
    {
      "anonymous": false,
      "inputs": [
        {
          "indexed": true,
          "internalType": "address",
          "name": "owner",
          "type": "address"
        },
        {
          "indexed": true,
          "internalType": "address",
          "name": "operator",
          "type": "address"
        },
        {
          "indexed": false,
          "internalType": "bool",
          "name": "approved",
          "type": "bool"
        }
      ],
      "name": "ApprovalForAll",
      "type": "event"
    },
    {
      "anonymous": false,
      "inputs": [
        {
          "indexed": false,
          "internalType": "uint256",
          "name": "_fromTokenId",
          "type": "uint256"
        },
        {
          "indexed": false,
          "internalType": "uint256",
          "name": "_toTokenId",
          "type": "uint256"
        }
      ],
      "name": "BatchMetadataUpdate",
      "type": "event"
    },
    {
      "anonymous": false,
      "inputs": [
        {
          "indexed": false,
          "internalType": "uint256",
          "name": "_tokenId",
          "type": "uint256"
        }
      ],
      "name": "MetadataUpdate",
      "type": "event"
    },
    {
      "anonymous": false,
      "inputs": [
        {
          "indexed": true,
          "internalType": "address",
          "name": "previousOwner",
          "type": "address"
        },
        {
          "indexed": true,
          "internalType": "address",
          "name": "newOwner",
          "type": "address"
        }
      ],
      "name": "OwnershipTransferred",
      "type": "event"
    },
    {
      "anonymous": false,
      "inputs": [
        {
          "indexed": true,
          "internalType": "address",
          "name": "from",
          "type": "address"
        },
        {
          "indexed": true,
          "internalType": "address",
          "name": "to",
          "type": "address"
        },
        {
          "indexed": true,
          "internalType": "uint256",
          "name": "tokenId",
          "type": "uint256"
        }
      ],
      "name": "Transfer",
      "type": "event"
    },
    {
      "inputs": [],
      "name": "ADMIN",
      "outputs": [
        {
          "internalType": "address",
          "name": "",
          "type": "address"
        }
      ],
      "stateMutability": "view",
      "type": "function"
    },
    {
      "inputs": [
        {
          "internalType": "address",
          "name": "to",
          "type": "address"
        },
        {
          "internalType": "uint256",
          "name": "tokenId",
          "type": "uint256"
        }
      ],
      "name": "approve",
      "outputs": [],
      "stateMutability": "nonpayable",
      "type": "function"
    },
    {
      "inputs": [
        {
          "internalType": "uint256",
          "name": "requestId",
          "type": "uint256"
        }
      ],
      "name": "approveAndMint",
      "outputs": [],
      "stateMutability": "nonpayable",
      "type": "function"
    },
    {
      "inputs": [
        {
          "internalType": "uint256",
          "name": "",
          "type": "uint256"
        }
      ],
      "name": "assetRequests",
      "outputs": [
        {
          "internalType": "address",
          "name": "requester",
          "type": "address"
        },
        {
          "internalType": "string",
          "name": "tokenURI",
          "type": "string"
        },
        {
          "internalType": "uint256",
          "name": "valuation",
          "type": "uint256"
        },
        {
          "internalType": "bool",
          "name": "approved",
          "type": "bool"
        }
      ],
      "stateMutability": "view",
      "type": "function"
    },
    {
      "inputs": [
        {
          "internalType": "uint256",
          "name": "",
          "type": "uint256"
        }
      ],
      "name": "assets",
      "outputs": [
        {
          "internalType": "uint256",
          "name": "tokenId",
          "type": "uint256"
        },
        {
          "internalType": "address",
          "name": "owner",
          "type": "address"
        },
        {
          "internalType": "string",
          "name": "tokenURI",
          "type": "string"
        },
        {
          "internalType": "uint256",
          "name": "valuation",
          "type": "uint256"
        },
        {
          "internalType": "bool",
          "name": "forSale",
          "type": "bool"
        },
        {
          "internalType": "uint256",
          "name": "price",
          "type": "uint256"
        }
      ],
      "stateMutability": "view",
      "type": "function"
    },
    {
      "inputs": [
        {
          "internalType": "address",
          "name": "owner",
          "type": "address"
        }
      ],
      "name": "balanceOf",
      "outputs": [
        {
          "internalType": "uint256",
          "name": "",
          "type": "uint256"
        }
      ],
      "stateMutability": "view",
      "type": "function"
    },
    {
      "inputs": [
        {
          "internalType": "uint256",
          "name": "_tokenId",
          "type": "uint256"
        }
      ],
      "name": "buyAsset",
      "outputs": [],
      "stateMutability": "payable",
      "type": "function"
    },
    {
      "inputs": [
        {
          "internalType": "uint256",
          "name": "_tokenId",
          "type": "uint256"
        }
      ],
      "name": "delistAsset",
      "outputs": [],
      "stateMutability": "nonpayable",
      "type": "function"
    },
    {
      "inputs": [],
      "name": "getAllAssetsForSale",
      "outputs": [
        {
          "components": [
            {
              "internalType": "uint256",
              "name": "tokenId",
              "type": "uint256"
            },
            {
              "internalType": "address",
              "name": "owner",
              "type": "address"
            },
            {
              "internalType": "string",
              "name": "tokenURI",
              "type": "string"
            },
            {
              "internalType": "uint256",
              "name": "valuation",
              "type": "uint256"
            },
            {
              "internalType": "bool",
              "name": "forSale",
              "type": "bool"
            },
            {
              "internalType": "uint256",
              "name": "price",
              "type": "uint256"
            }
          ],
          "internalType": "struct RealEstateToken.Asset[]",
          "name": "",
          "type": "tuple[]"
        }
      ],
      "stateMutability": "view",
      "type": "function"
    },
    {
      "inputs": [
        {
          "internalType": "uint256",
          "name": "tokenId",
          "type": "uint256"
        }
      ],
      "name": "getApproved",
      "outputs": [
        {
          "internalType": "address",
          "name": "",
          "type": "address"
        }
      ],
      "stateMutability": "view",
      "type": "function"
    },
    {
      "inputs": [
        {
          "internalType": "uint256",
          "name": "requestId",
          "type": "uint256"
        }
      ],
      "name": "getAssetRequest",
      "outputs": [
        {
          "components": [
            {
              "internalType": "address",
              "name": "requester",
              "type": "address"
            },
            {
              "internalType": "string",
              "name": "tokenURI",
              "type": "string"
            },
            {
              "internalType": "uint256",
              "name": "valuation",
              "type": "uint256"
            },
            {
              "internalType": "bool",
              "name": "approved",
              "type": "bool"
            }
          ],
          "internalType": "struct RealEstateToken.AssetRequest",
          "name": "",
          "type": "tuple"
        }
      ],
      "stateMutability": "view",
      "type": "function"
    },
    {
      "inputs": [
        {
          "internalType": "address",
          "name": "_owner",
          "type": "address"
        }
      ],
      "name": "getAssetsByOwner",
      "outputs": [
        {
          "components": [
            {
              "internalType": "uint256",
              "name": "tokenId",
              "type": "uint256"
            },
            {
              "internalType": "address",
              "name": "owner",
              "type": "address"
            },
            {
              "internalType": "string",
              "name": "tokenURI",
              "type": "string"
            },
            {
              "internalType": "uint256",
              "name": "valuation",
              "type": "uint256"
            },
            {
              "internalType": "bool",
              "name": "forSale",
              "type": "bool"
            },
            {
              "internalType": "uint256",
              "name": "price",
              "type": "uint256"
            }
          ],
          "internalType": "struct RealEstateToken.Asset[]",
          "name": "",
          "type": "tuple[]"
        }
      ],
      "stateMutability": "view",
      "type": "function"
    },
    {
      "inputs": [
        {
          "internalType": "address",
          "name": "owner",
          "type": "address"
        },
        {
          "internalType": "address",
          "name": "operator",
          "type": "address"
        }
      ],
      "name": "isApprovedForAll",
      "outputs": [
        {
          "internalType": "bool",
          "name": "",
          "type": "bool"
        }
      ],
      "stateMutability": "view",
      "type": "function"
    },
    {
      "inputs": [
        {
          "internalType": "uint256",
          "name": "_tokenId",
          "type": "uint256"
        },
        {
          "internalType": "uint256",
          "name": "_price",
          "type": "uint256"
        }
      ],
      "name": "listForSale",
      "outputs": [],
      "stateMutability": "nonpayable",
      "type": "function"
    },
    {
      "inputs": [
        {
          "internalType": "string",
          "name": "_tokenURI",
          "type": "string"
        },
        {
          "internalType": "uint256",
          "name": "_valuation",
          "type": "uint256"
        }
      ],
      "name": "mintAsset",
      "outputs": [],
      "stateMutability": "nonpayable",
      "type": "function"
    },
    {
      "inputs": [],
      "name": "name",
      "outputs": [
        {
          "internalType": "string",
          "name": "",
          "type": "string"
        }
      ],
      "stateMutability": "view",
      "type": "function"
    },
    {
      "inputs": [],
      "name": "nextAssetRequestId",
      "outputs": [
        {
          "internalType": "uint256",
          "name": "",
          "type": "uint256"
        }
      ],
      "stateMutability": "view",
      "type": "function"
    },
    {
      "inputs": [],
      "name": "nextTokenId",
      "outputs": [
        {
          "internalType": "uint256",
          "name": "",
          "type": "uint256"
        }
      ],
      "stateMutability": "view",
      "type": "function"
    },
    {
      "inputs": [],
      "name": "owner",
      "outputs": [
        {
          "internalType": "address",
          "name": "",
          "type": "address"
        }
      ],
      "stateMutability": "view",
      "type": "function"
    },
    {
      "inputs": [
        {
          "internalType": "uint256",
          "name": "tokenId",
          "type": "uint256"
        }
      ],
      "name": "ownerOf",
      "outputs": [
        {
          "internalType": "address",
          "name": "",
          "type": "address"
        }
      ],
      "stateMutability": "view",
      "type": "function"
    },
    {
      "inputs": [],
      "name": "renounceOwnership",
      "outputs": [],
      "stateMutability": "nonpayable",
      "type": "function"
    },
    {
      "inputs": [
        {
          "internalType": "address",
          "name": "from",
          "type": "address"
        },
        {
          "internalType": "address",
          "name": "to",
          "type": "address"
        },
        {
          "internalType": "uint256",
          "name": "tokenId",
          "type": "uint256"
        }
      ],
      "name": "safeTransferFrom",
      "outputs": [],
      "stateMutability": "nonpayable",
      "type": "function"
    },
    {
      "inputs": [
        {
          "internalType": "address",
          "name": "from",
          "type": "address"
        },
        {
          "internalType": "address",
          "name": "to",
          "type": "address"
        },
        {
          "internalType": "uint256",
          "name": "tokenId",
          "type": "uint256"
        },
        {
          "internalType": "bytes",
          "name": "data",
          "type": "bytes"
        }
      ],
      "name": "safeTransferFrom",
      "outputs": [],
      "stateMutability": "nonpayable",
      "type": "function"
    },
    {
      "inputs": [
        {
          "internalType": "address",
          "name": "operator",
          "type": "address"
        },
        {
          "internalType": "bool",
          "name": "approved",
          "type": "bool"
        }
      ],
      "name": "setApprovalForAll",
      "outputs": [],
      "stateMutability": "nonpayable",
      "type": "function"
    },
    {
      "inputs": [
        {
          "internalType": "bytes4",
          "name": "interfaceId",
          "type": "bytes4"
        }
      ],
      "name": "supportsInterface",
      "outputs": [
        {
          "internalType": "bool",
          "name": "",
          "type": "bool"
        }
      ],
      "stateMutability": "view",
      "type": "function"
    },
    {
      "inputs": [],
      "name": "symbol",
      "outputs": [
        {
          "internalType": "string",
          "name": "",
          "type": "string"
        }
      ],
      "stateMutability": "view",
      "type": "function"
    },
    {
      "inputs": [
        {
          "internalType": "uint256",
          "name": "tokenId",
          "type": "uint256"
        }
      ],
      "name": "tokenURI",
      "outputs": [
        {
          "internalType": "string",
          "name": "",
          "type": "string"
        }
      ],
      "stateMutability": "view",
      "type": "function"
    },
    {
      "inputs": [
        {
          "internalType": "address",
          "name": "_to",
          "type": "address"
        },
        {
          "internalType": "uint256",
          "name": "_tokenId",
          "type": "uint256"
        }
      ],
      "name": "transferAsset",
      "outputs": [],
      "stateMutability": "nonpayable",
      "type": "function"
    },
    {
      "inputs": [
        {
          "internalType": "address",
          "name": "from",
          "type": "address"
        },
        {
          "internalType": "address",
          "name": "to",
          "type": "address"
        },
        {
          "internalType": "uint256",
          "name": "tokenId",
          "type": "uint256"
        }
      ],
      "name": "transferFrom",
      "outputs": [],
      "stateMutability": "nonpayable",
      "type": "function"
    },
    {
      "inputs": [
        {
          "internalType": "address",
          "name": "newOwner",
          "type": "address"
        }
      ],
      "name": "transferOwnership",
      "outputs": [],
      "stateMutability": "nonpayable",
      "type": "function"
    }
  ],
  "bytecode": "0x608060405234801561001057600080fd5b5073f39fd6e51aad88f6f4ce6ab8827279cfffb922666040518060400160405280600f81526020017f5265616c457374617465546f6b656e00000000000000000000000000000000008152506040518060400160405280600381526020017f524554000000000000000000000000000000000000000000000000000000000081525081600090816100a19190610451565b5080600190816100b19190610451565b505050600073ffffffffffffffffffffffffffffffffffffffff168173ffffffffffffffffffffffffffffffffffffffff16036101265760006040517f1e4fbdf700000000000000000000000000000000000000000000000000000000815260040161011d9190610564565b60405180910390fd5b6101358161013b60201b60201c565b5061057f565b6000600760009054906101000a900473ffffffffffffffffffffffffffffffffffffffff16905081600760006101000a81548173ffffffffffffffffffffffffffffffffffffffff021916908373ffffffffffffffffffffffffffffffffffffffff1602179055508173ffffffffffffffffffffffffffffffffffffffff168173ffffffffffffffffffffffffffffffffffffffff167f8be0079c531659141344cd1fd0a4f28419497f9722a3daafe3b4186f6b6457e060405160405180910390a35050565b600081519050919050565b7f4e487b7100000000000000000000000000000000000000000000000000000000600052604160045260246000fd5b7f4e487b7100000000000000000000000000000000000000000000000000000000600052602260045260246000fd5b6000600282049050600182168061028257607f821691505b6020821081036102955761029461023b565b5b50919050565b60008190508160005260206000209050919050565b60006020601f8301049050919050565b600082821b905092915050565b6000600883026102fd7fffffffffffffffffffffffffffffffffffffffffffffffffffffffffffffffff826102c0565b61030786836102c0565b95508019841693508086168417925050509392505050565b6000819050919050565b6000819050919050565b600061034e6103496103448461031f565b610329565b61031f565b9050919050565b6000819050919050565b61036883610333565b61037c61037482610355565b8484546102cd565b825550505050565b600090565b610391610384565b61039c81848461035f565b505050565b5b818110156103c0576103b5600082610389565b6001810190506103a2565b5050565b601f821115610405576103d68161029b565b6103df846102b0565b810160208510156103ee578190505b6104026103fa856102b0565b8301826103a1565b50505b505050565b600082821c905092915050565b60006104286000198460080261040a565b1980831691505092915050565b60006104418383610417565b9150826002028217905092915050565b61045a82610201565b67ffffffffffffffff8111156104735761047261020c565b5b61047d825461026a565b6104888282856103c4565b600060209050601f8311600181146104bb57600084156104a9578287015190505b6104b38582610435565b86555061051b565b601f1984166104c98661029b565b60005b828110156104f1578489015182556001820191506020850194506020810190506104cc565b8683101561050e578489015161050a601f891682610417565b8355505b6001600288020188555050505b505050505050565b600073ffffffffffffffffffffffffffffffffffffffff82169050919050565b600061054e82610523565b9050919050565b61055e81610543565b82525050565b60006020820190506105796000830184610555565b92915050565b61469f8061058e6000396000f3fe6080604052600436106101cd5760003560e01c8063715018a6116100f7578063b85b0c1e11610095578063cf35bdd011610064578063cf35bdd01461068e578063e80d7fec146106d0578063e985e9c5146106f9578063f2fde38b14610736576101cd565b8063b85b0c1e146105ab578063b88d4fde146105eb578063c1bf4a7a14610614578063c87b56dd14610651576101cd565b80638e1e8732116100d15780638e1e87321461050557806395d89b411461052e5780639776a64314610559578063a22cb46514610582576101cd565b8063715018a61461049857806375794a3c146104af5780638da5cb5b146104da576101cd565b80632a0acc6a1161016f5780635c921eb91161013e5780635c921eb9146103ca5780636352211e146103f357806364c674741461043057806370a082311461045b576101cd565b80632a0acc6a146103225780632bedc4e21461034d57806342842e0e1461037857806343d7c778146103a1576101cd565b8063095ea7b3116101ab578063095ea7b314610277578063110d35b8146102a057806323b872dd146102bc578063276f0934146102e5576101cd565b806301ffc9a7146101d257806306fdde031461020f578063081812fc1461023a575b600080fd5b3480156101de57600080fd5b506101f960048036038101906101f4919061340b565b61075f565b6040516102069190613453565b60405180910390f35b34801561021b57600080fd5b506102246107c0565b60405161023191906134fe565b60405180910390f35b34801561024657600080fd5b50610261600480360381019061025c9190613556565b610852565b60405161026e91906135c4565b60405180910390f35b34801561028357600080fd5b5061029e6004803603810190610299919061360b565b61086e565b005b6102ba60048036038101906102b59190613556565b610884565b005b3480156102c857600080fd5b506102e360048036038101906102de919061364b565b610bc6565b005b3480156102f157600080fd5b5061030c6004803603810190610307919061369e565b610cc8565b604051610319919061388d565b60405180910390f35b34801561032e57600080fd5b50610337610fb6565b60405161034491906135c4565b60405180910390f35b34801561035957600080fd5b50610362610fce565b60405161036f919061388d565b60405180910390f35b34801561038457600080fd5b5061039f600480360381019061039a919061364b565b61123a565b005b3480156103ad57600080fd5b506103c860048036038101906103c39190613556565b61125a565b005b3480156103d657600080fd5b506103f160048036038101906103ec919061360b565b611388565b005b3480156103ff57600080fd5b5061041a60048036038101906104159190613556565b611462565b60405161042791906135c4565b60405180910390f35b34801561043c57600080fd5b50610445611474565b60405161045291906138be565b60405180910390f35b34801561046757600080fd5b50610482600480360381019061047d919061369e565b61147a565b60405161048f91906138be565b60405180910390f35b3480156104a457600080fd5b506104ad611534565b005b3480156104bb57600080fd5b506104c4611548565b6040516104d191906138be565b60405180910390f35b3480156104e657600080fd5b506104ef61154e565b6040516104fc91906135c4565b60405180910390f35b34801561051157600080fd5b5061052c60048036038101906105279190613556565b611578565b005b34801561053a57600080fd5b5061054361192d565b60405161055091906134fe565b60405180910390f35b34801561056557600080fd5b50610580600480360381019061057b9190613a0e565b6119bf565b005b34801561058e57600080fd5b506105a960048036038101906105a49190613a96565b611ab4565b005b3480156105b757600080fd5b506105d260048036038101906105cd9190613556565b611aca565b6040516105e29493929190613ad6565b60405180910390f35b3480156105f757600080fd5b50610612600480360381019061060d9190613bc3565b611baf565b005b34801561062057600080fd5b5061063b60048036038101906106369190613556565b611bd4565b6040516106489190613ca9565b60405180910390f35b34801561065d57600080fd5b5061067860048036038101906106739190613556565b611d0e565b60405161068591906134fe565b60405180910390f35b34801561069a57600080fd5b506106b560048036038101906106b09190613556565b611e21565b6040516106c796959493929190613ccb565b60405180910390f35b3480156106dc57600080fd5b506106f760048036038101906106f29190613d33565b611f12565b005b34801561070557600080fd5b50610720600480360381019061071b9190613d73565b612019565b60405161072d9190613453565b60405180910390f35b34801561074257600080fd5b5061075d6004803603810190610758919061369e565b6120ad565b005b6000634906490660e01b7bffffffffffffffffffffffffffffffffffffffffffffffffffffffff1916827bffffffffffffffffffffffffffffffffffffffffffffffffffffffff191614806107b957506107b882612133565b5b9050919050565b6060600080546107cf90613de2565b80601f01602080910402602001604051908101604052809291908181526020018280546107fb90613de2565b80156108485780601f1061081d57610100808354040283529160200191610848565b820191906000526020600020905b81548152906001019060200180831161082b57829003601f168201915b5050505050905090565b600061085d82612215565b506108678261229d565b9050919050565b610880828261087b6122da565b6122e2565b5050565b6000600a60008381526020019081526020016000206040518060c0016040529081600082015481526020016001820160009054906101000a900473ffffffffffffffffffffffffffffffffffffffff1673ffffffffffffffffffffffffffffffffffffffff1673ffffffffffffffffffffffffffffffffffffffff16815260200160028201805461091490613de2565b80601f016020809104026020016040519081016040528092919081815260200182805461094090613de2565b801561098d5780601f106109625761010080835404028352916020019161098d565b820191906000526020600020905b81548152906001019060200180831161097057829003601f168201915b50505050508152602001600382015481526020016004820160009054906101000a900460ff1615151515815260200160058201548152505090508060800151610a0b576040517f08c379a0000000000000000000000000000000000000000000000000000000008152600401610a0290613e5f565b60405180910390fd5b8060a00151341015610a52576040517f08c379a0000000000000000000000000000000000000000000000000000000008152600401610a4990613ecb565b60405180910390fd5b806020015173ffffffffffffffffffffffffffffffffffffffff163373ffffffffffffffffffffffffffffffffffffffff1603610ac4576040517f08c379a0000000000000000000000000000000000000000000000000000000008152600401610abb90613f37565b60405180910390fd5b806020015173ffffffffffffffffffffffffffffffffffffffff166108fc8260a001519081150290604051600060405180830381858888f19350505050158015610b12573d6000803e3d6000fd5b50610b22816020015133846122f4565b33600a600084815260200190815260200160002060010160006101000a81548173ffffffffffffffffffffffffffffffffffffffff021916908373ffffffffffffffffffffffffffffffffffffffff1602179055506000600a600084815260200190815260200160002060040160006101000a81548160ff0219169083151502179055506000600a6000848152602001908152602001600020600501819055505050565b600073ffffffffffffffffffffffffffffffffffffffff168273ffffffffffffffffffffffffffffffffffffffff1603610c385760006040517f64a0ae92000000000000000000000000000000000000000000000000000000008152600401610c2f91906135c4565b60405180910390fd5b6000610c4c8383610c476122da565b612461565b90508373ffffffffffffffffffffffffffffffffffffffff168173ffffffffffffffffffffffffffffffffffffffff1614610cc2578382826040517f64283d7b000000000000000000000000000000000000000000000000000000008152600401610cb993929190613f57565b60405180910390fd5b50505050565b6060600060085490506000805b82811015610d62578473ffffffffffffffffffffffffffffffffffffffff16600a600083815260200190815260200160002060010160009054906101000a900473ffffffffffffffffffffffffffffffffffffffff1673ffffffffffffffffffffffffffffffffffffffff1603610d55578180610d5190613fbd565b9250505b8080600101915050610cd5565b5060008167ffffffffffffffff811115610d7f57610d7e6138e3565b5b604051908082528060200260200182016040528015610db857816020015b610da5613311565b815260200190600190039081610d9d5790505b5090506000805b84811015610fa9578673ffffffffffffffffffffffffffffffffffffffff16600a600083815260200190815260200160002060010160009054906101000a900473ffffffffffffffffffffffffffffffffffffffff1673ffffffffffffffffffffffffffffffffffffffff1603610f9c57600a60008281526020019081526020016000206040518060c0016040529081600082015481526020016001820160009054906101000a900473ffffffffffffffffffffffffffffffffffffffff1673ffffffffffffffffffffffffffffffffffffffff1673ffffffffffffffffffffffffffffffffffffffff168152602001600282018054610ebe90613de2565b80601f0160208091040260200160405190810160405280929190818152602001828054610eea90613de2565b8015610f375780601f10610f0c57610100808354040283529160200191610f37565b820191906000526020600020905b815481529060010190602001808311610f1a57829003601f168201915b50505050508152602001600382015481526020016004820160009054906101000a900460ff16151515158152602001600582015481525050838381518110610f8257610f81614005565b5b60200260200101819052508180610f9890613fbd565b9250505b8080600101915050610dbf565b5081945050505050919050565b73f39fd6e51aad88f6f4ce6ab8827279cfffb9226681565b6060600060085490506000805b8281101561102857600a600082815260200190815260200160002060040160009054906101000a900460ff161561101b57818061101790613fbd565b9250505b8080600101915050610fdb565b5060008167ffffffffffffffff811115611045576110446138e3565b5b60405190808252806020026020018201604052801561107e57816020015b61106b613311565b8152602001906001900390816110635790505b5090506000805b8481101561122f57600a600082815260200190815260200160002060040160009054906101000a900460ff161561122257600a60008281526020019081526020016000206040518060c0016040529081600082015481526020016001820160009054906101000a900473ffffffffffffffffffffffffffffffffffffffff1673ffffffffffffffffffffffffffffffffffffffff1673ffffffffffffffffffffffffffffffffffffffff16815260200160028201805461114490613de2565b80601f016020809104026020016040519081016040528092919081815260200182805461117090613de2565b80156111bd5780601f10611192576101008083540402835291602001916111bd565b820191906000526020600020905b8154815290600101906020018083116111a057829003601f168201915b50505050508152602001600382015481526020016004820160009054906101000a900460ff1615151515815260200160058201548152505083838151811061120857611207614005565b5b6020026020010181905250818061121e90613fbd565b9250505b8080600101915050611085565b508194505050505090565b61125583838360405180602001604052806000815250611baf565b505050565b3373ffffffffffffffffffffffffffffffffffffffff1661127a82611462565b73ffffffffffffffffffffffffffffffffffffffff16146112d0576040517f08c379a00000000000000000000000000000000000000000000000000000000081526004016112c790614080565b60405180910390fd5b60011515600a600083815260200190815260200160002060040160009054906101000a900460ff1615151461133a576040517f08c379a0000000000000000000000000000000000000000000000000000000008152600401611331906140ec565b60405180910390fd5b6000600a600083815260200190815260200160002060040160006101000a81548160ff0219169083151502179055506000600a60008381526020019081526020016000206005018190555050565b3373ffffffffffffffffffffffffffffffffffffffff166113a882611462565b73ffffffffffffffffffffffffffffffffffffffff16146113fe576040517f08c379a00000000000000000000000000000000000000000000000000000000081526004016113f590614080565b60405180910390fd5b6114093383836122f4565b81600a600083815260200190815260200160002060010160006101000a81548173ffffffffffffffffffffffffffffffffffffffff021916908373ffffffffffffffffffffffffffffffffffffffff1602179055505050565b600061146d82612215565b9050919050565b60095481565b60008073ffffffffffffffffffffffffffffffffffffffff168273ffffffffffffffffffffffffffffffffffffffff16036114ed5760006040517f89c62b640000000000000000000000000000000000000000000000000000000081526004016114e491906135c4565b60405180910390fd5b600360008373ffffffffffffffffffffffffffffffffffffffff1673ffffffffffffffffffffffffffffffffffffffff168152602001908152602001600020549050919050565b61153c61267b565b6115466000612702565b565b60085481565b6000600760009054906101000a900473ffffffffffffffffffffffffffffffffffffffff16905090565b61158061267b565b6000600b600083815260200190815260200160002090508060030160009054906101000a900460ff16156115e9576040517f08c379a00000000000000000000000000000000000000000000000000000000081526004016115e090614158565b60405180910390fd5b600073ffffffffffffffffffffffffffffffffffffffff168160000160009054906101000a900473ffffffffffffffffffffffffffffffffffffffff1673ffffffffffffffffffffffffffffffffffffffff160361167c576040517f08c379a0000000000000000000000000000000000000000000000000000000008152600401611673906141c4565b60405180910390fd5b60018160030160006101000a81548160ff021916908315150217905550600060085490506116ce8260000160009054906101000a900473ffffffffffffffffffffffffffffffffffffffff16826127c8565b611764818360010180546116e190613de2565b80601f016020809104026020016040519081016040528092919081815260200182805461170d90613de2565b801561175a5780601f1061172f5761010080835404028352916020019161175a565b820191906000526020600020905b81548152906001019060200180831161173d57829003601f168201915b50505050506127e6565b6040518060c001604052808281526020018360000160009054906101000a900473ffffffffffffffffffffffffffffffffffffffff1673ffffffffffffffffffffffffffffffffffffffff1681526020018360010180546117c490613de2565b80601f01602080910402602001604051908101604052809291908181526020018280546117f090613de2565b801561183d5780601f106118125761010080835404028352916020019161183d565b820191906000526020600020905b81548152906001019060200180831161182057829003601f168201915b50505050508152602001836002015481526020016000151581526020016000815250600a60008381526020019081526020016000206000820151816000015560208201518160010160006101000a81548173ffffffffffffffffffffffffffffffffffffffff021916908373ffffffffffffffffffffffffffffffffffffffff16021790555060408201518160020190816118d89190614390565b506060820151816003015560808201518160040160006101000a81548160ff02191690831515021790555060a082015181600501559050506008600081548092919061192390613fbd565b9190505550505050565b60606001805461193c90613de2565b80601f016020809104026020016040519081016040528092919081815260200182805461196890613de2565b80156119b55780601f1061198a576101008083540402835291602001916119b5565b820191906000526020600020905b81548152906001019060200180831161199857829003601f168201915b5050505050905090565b60405180608001604052803373ffffffffffffffffffffffffffffffffffffffff16815260200183815260200182815260200160001515815250600b6000600954815260200190815260200160002060008201518160000160006101000a81548173ffffffffffffffffffffffffffffffffffffffff021916908373ffffffffffffffffffffffffffffffffffffffff1602179055506020820151816001019081611a6a9190614390565b506040820151816002015560608201518160030160006101000a81548160ff02191690831515021790555090505060096000815480929190611aab90613fbd565b91905055505050565b611ac6611abf6122da565b8383612842565b5050565b600b6020528060005260406000206000915090508060000160009054906101000a900473ffffffffffffffffffffffffffffffffffffffff1690806001018054611b1390613de2565b80601f0160208091040260200160405190810160405280929190818152602001828054611b3f90613de2565b8015611b8c5780601f10611b6157610100808354040283529160200191611b8c565b820191906000526020600020905b815481529060010190602001808311611b6f57829003601f168201915b5050505050908060020154908060030160009054906101000a900460ff16905084565b611bba848484610bc6565b611bce611bc56122da565b858585856129b1565b50505050565b611bdc61335f565b600b60008381526020019081526020016000206040518060800160405290816000820160009054906101000a900473ffffffffffffffffffffffffffffffffffffffff1673ffffffffffffffffffffffffffffffffffffffff1673ffffffffffffffffffffffffffffffffffffffff168152602001600182018054611c6090613de2565b80601f0160208091040260200160405190810160405280929190818152602001828054611c8c90613de2565b8015611cd95780601f10611cae57610100808354040283529160200191611cd9565b820191906000526020600020905b815481529060010190602001808311611cbc57829003601f168201915b50505050508152602001600282015481526020016003820160009054906101000a900460ff1615151515815250509050919050565b6060611d1982612215565b506000600660008481526020019081526020016000208054611d3a90613de2565b80601f0160208091040260200160405190810160405280929190818152602001828054611d6690613de2565b8015611db35780601f10611d8857610100808354040283529160200191611db3565b820191906000526020600020905b815481529060010190602001808311611d9657829003601f168201915b505050505090506000611dc4612b62565b90506000815103611dd9578192505050611e1c565b600082511115611e0e578082604051602001611df692919061449e565b60405160208183030381529060405292505050611e1c565b611e1784612b79565b925050505b919050565b600a6020528060005260406000206000915090508060000154908060010160009054906101000a900473ffffffffffffffffffffffffffffffffffffffff1690806002018054611e7090613de2565b80601f0160208091040260200160405190810160405280929190818152602001828054611e9c90613de2565b8015611ee95780601f10611ebe57610100808354040283529160200191611ee9565b820191906000526020600020905b815481529060010190602001808311611ecc57829003601f168201915b5050505050908060030154908060040160009054906101000a900460ff16908060050154905086565b3373ffffffffffffffffffffffffffffffffffffffff16611f3283611462565b73ffffffffffffffffffffffffffffffffffffffff1614611f88576040517f08c379a0000000000000000000000000000000000000000000000000000000008152600401611f7f90614080565b60405180910390fd5b60008111611fcb576040517f08c379a0000000000000000000000000000000000000000000000000000000008152600401611fc29061450e565b60405180910390fd5b6001600a600084815260200190815260200160002060040160006101000a81548160ff02191690831515021790555080600a6000848152602001908152602001600020600501819055505050565b6000600560008473ffffffffffffffffffffffffffffffffffffffff1673ffffffffffffffffffffffffffffffffffffffff16815260200190815260200160002060008373ffffffffffffffffffffffffffffffffffffffff1673ffffffffffffffffffffffffffffffffffffffff16815260200190815260200160002060009054906101000a900460ff16905092915050565b6120b561267b565b600073ffffffffffffffffffffffffffffffffffffffff168173ffffffffffffffffffffffffffffffffffffffff16036121275760006040517f1e4fbdf700000000000000000000000000000000000000000000000000000000815260040161211e91906135c4565b60405180910390fd5b61213081612702565b50565b60007f80ac58cd000000000000000000000000000000000000000000000000000000007bffffffffffffffffffffffffffffffffffffffffffffffffffffffff1916827bffffffffffffffffffffffffffffffffffffffffffffffffffffffff191614806121fe57507f5b5e139f000000000000000000000000000000000000000000000000000000007bffffffffffffffffffffffffffffffffffffffffffffffffffffffff1916827bffffffffffffffffffffffffffffffffffffffffffffffffffffffff1916145b8061220e575061220d82612be2565b5b9050919050565b60008061222183612c4c565b9050600073ffffffffffffffffffffffffffffffffffffffff168173ffffffffffffffffffffffffffffffffffffffff160361229457826040517f7e27328900000000000000000000000000000000000000000000000000000000815260040161228b91906138be565b60405180910390fd5b80915050919050565b60006004600083815260200190815260200160002060009054906101000a900473ffffffffffffffffffffffffffffffffffffffff169050919050565b600033905090565b6122ef8383836001612c89565b505050565b600073ffffffffffffffffffffffffffffffffffffffff168273ffffffffffffffffffffffffffffffffffffffff16036123665760006040517f64a0ae9200000000000000000000000000000000000000000000000000000000815260040161235d91906135c4565b60405180910390fd5b600061237483836000612461565b9050600073ffffffffffffffffffffffffffffffffffffffff168173ffffffffffffffffffffffffffffffffffffffff16036123e757816040517f7e2732890000000000000000000000000000000000000000000000000000000081526004016123de91906138be565b60405180910390fd5b8373ffffffffffffffffffffffffffffffffffffffff168173ffffffffffffffffffffffffffffffffffffffff161461245b578382826040517f64283d7b00000000000000000000000000000000000000000000000000000000815260040161245293929190613f57565b60405180910390fd5b50505050565b60008061246d84612c4c565b9050600073ffffffffffffffffffffffffffffffffffffffff168373ffffffffffffffffffffffffffffffffffffffff16146124af576124ae818486612e4e565b5b600073ffffffffffffffffffffffffffffffffffffffff168173ffffffffffffffffffffffffffffffffffffffff1614612540576124f1600085600080612c89565b6001600360008373ffffffffffffffffffffffffffffffffffffffff1673ffffffffffffffffffffffffffffffffffffffff168152602001908152602001600020600082825403925050819055505b600073ffffffffffffffffffffffffffffffffffffffff168573ffffffffffffffffffffffffffffffffffffffff16146125c3576001600360008773ffffffffffffffffffffffffffffffffffffffff1673ffffffffffffffffffffffffffffffffffffffff168152602001908152602001600020600082825401925050819055505b846002600086815260200190815260200160002060006101000a81548173ffffffffffffffffffffffffffffffffffffffff021916908373ffffffffffffffffffffffffffffffffffffffff160217905550838573ffffffffffffffffffffffffffffffffffffffff168273ffffffffffffffffffffffffffffffffffffffff167fddf252ad1be2c89b69c2b068fc378daa952ba7f163c4a11628f55a4df523b3ef60405160405180910390a4809150509392505050565b6126836122da565b73ffffffffffffffffffffffffffffffffffffffff166126a161154e565b73ffffffffffffffffffffffffffffffffffffffff1614612700576126c46122da565b6040517f118cdaa70000000000000000000000000000000000000000000000000000000081526004016126f791906135c4565b60405180910390fd5b565b6000600760009054906101000a900473ffffffffffffffffffffffffffffffffffffffff16905081600760006101000a81548173ffffffffffffffffffffffffffffffffffffffff021916908373ffffffffffffffffffffffffffffffffffffffff1602179055508173ffffffffffffffffffffffffffffffffffffffff168173ffffffffffffffffffffffffffffffffffffffff167f8be0079c531659141344cd1fd0a4f28419497f9722a3daafe3b4186f6b6457e060405160405180910390a35050565b6127e2828260405180602001604052806000815250612f12565b5050565b806006600084815260200190815260200160002090816128069190614390565b507ff8e1a15aba9398e019f0b49df1a4fde98ee17ae345cb5f6b5e2c27f5033e8ce78260405161283691906138be565b60405180910390a15050565b600073ffffffffffffffffffffffffffffffffffffffff168273ffffffffffffffffffffffffffffffffffffffff16036128b357816040517f5b08ba180000000000000000000000000000000000000000000000000000000081526004016128aa91906135c4565b60405180910390fd5b80600560008573ffffffffffffffffffffffffffffffffffffffff1673ffffffffffffffffffffffffffffffffffffffff16815260200190815260200160002060008473ffffffffffffffffffffffffffffffffffffffff1673ffffffffffffffffffffffffffffffffffffffff16815260200190815260200160002060006101000a81548160ff0219169083151502179055508173ffffffffffffffffffffffffffffffffffffffff168373ffffffffffffffffffffffffffffffffffffffff167f17307eab39ab6107e8899845ad3d59bd9653f200f220920489ca2b5937696c31836040516129a49190613453565b60405180910390a3505050565b60008373ffffffffffffffffffffffffffffffffffffffff163b1115612b5b578273ffffffffffffffffffffffffffffffffffffffff1663150b7a02868685856040518563ffffffff1660e01b8152600401612a109493929190614583565b6020604051808303816000875af1925050508015612a4c57506040513d601f19601f82011682018060405250810190612a4991906145e4565b60015b612ad0573d8060008114612a7c576040519150601f19603f3d011682016040523d82523d6000602084013e612a81565b606091505b506000815103612ac857836040517f64a0ae92000000000000000000000000000000000000000000000000000000008152600401612abf91906135c4565b60405180910390fd5b805181602001fd5b63150b7a0260e01b7bffffffffffffffffffffffffffffffffffffffffffffffffffffffff1916817bffffffffffffffffffffffffffffffffffffffffffffffffffffffff191614612b5957836040517f64a0ae92000000000000000000000000000000000000000000000000000000008152600401612b5091906135c4565b60405180910390fd5b505b5050505050565b606060405180602001604052806000815250905090565b6060612b8482612215565b506000612b8f612b62565b90506000815111612baf5760405180602001604052806000815250612bda565b80612bb984612f36565b604051602001612bca92919061449e565b6040516020818303038152906040525b915050919050565b60007f01ffc9a7000000000000000000000000000000000000000000000000000000007bffffffffffffffffffffffffffffffffffffffffffffffffffffffff1916827bffffffffffffffffffffffffffffffffffffffffffffffffffffffff1916149050919050565b60006002600083815260200190815260200160002060009054906101000a900473ffffffffffffffffffffffffffffffffffffffff169050919050565b8080612cc25750600073ffffffffffffffffffffffffffffffffffffffff168273ffffffffffffffffffffffffffffffffffffffff1614155b15612df6576000612cd284612215565b9050600073ffffffffffffffffffffffffffffffffffffffff168373ffffffffffffffffffffffffffffffffffffffff1614158015612d3d57508273ffffffffffffffffffffffffffffffffffffffff168173ffffffffffffffffffffffffffffffffffffffff1614155b8015612d505750612d4e8184612019565b155b15612d9257826040517fa9fbf51f000000000000000000000000000000000000000000000000000000008152600401612d8991906135c4565b60405180910390fd5b8115612df457838573ffffffffffffffffffffffffffffffffffffffff168273ffffffffffffffffffffffffffffffffffffffff167f8c5be1e5ebec7d5bd14f71427d1e84f3dd0314c0f7b2291e5b200ac8c7c3b92560405160405180910390a45b505b836004600085815260200190815260200160002060006101000a81548173ffffffffffffffffffffffffffffffffffffffff021916908373ffffffffffffffffffffffffffffffffffffffff16021790555050505050565b612e59838383613004565b612f0d57600073ffffffffffffffffffffffffffffffffffffffff168373ffffffffffffffffffffffffffffffffffffffff1603612ece57806040517f7e273289000000000000000000000000000000000000000000000000000000008152600401612ec591906138be565b60405180910390fd5b81816040517f177e802f000000000000000000000000000000000000000000000000000000008152600401612f04929190614611565b60405180910390fd5b505050565b612f1c83836130c5565b612f31612f276122da565b60008585856129b1565b505050565b606060006001612f45846131be565b01905060008167ffffffffffffffff811115612f6457612f636138e3565b5b6040519080825280601f01601f191660200182016040528015612f965781602001600182028036833780820191505090505b509050600082602001820190505b600115612ff9578080600190039150507f3031323334353637383961626364656600000000000000000000000000000000600a86061a8153600a8581612fed57612fec61463a565b5b04945060008503612fa4575b819350505050919050565b60008073ffffffffffffffffffffffffffffffffffffffff168373ffffffffffffffffffffffffffffffffffffffff16141580156130bc57508273ffffffffffffffffffffffffffffffffffffffff168473ffffffffffffffffffffffffffffffffffffffff16148061307d575061307c8484612019565b5b806130bb57508273ffffffffffffffffffffffffffffffffffffffff166130a38361229d565b73ffffffffffffffffffffffffffffffffffffffff16145b5b90509392505050565b600073ffffffffffffffffffffffffffffffffffffffff168273ffffffffffffffffffffffffffffffffffffffff16036131375760006040517f64a0ae9200000000000000000000000000000000000000000000000000000000815260040161312e91906135c4565b60405180910390fd5b600061314583836000612461565b9050600073ffffffffffffffffffffffffffffffffffffffff168173ffffffffffffffffffffffffffffffffffffffff16146131b95760006040517f73c6ac6e0000000000000000000000000000000000000000000000000000000081526004016131b091906135c4565b60405180910390fd5b505050565b600080600090507a184f03e93ff9f4daa797ed6e38ed64bf6a1f010000000000000000831061321c577a184f03e93ff9f4daa797ed6e38ed64bf6a1f01000000000000000083816132125761321161463a565b5b0492506040810190505b6d04ee2d6d415b85acef81000000008310613259576d04ee2d6d415b85acef8100000000838161324f5761324e61463a565b5b0492506020810190505b662386f26fc10000831061328857662386f26fc10000838161327e5761327d61463a565b5b0492506010810190505b6305f5e10083106132b1576305f5e10083816132a7576132a661463a565b5b0492506008810190505b61271083106132d65761271083816132cc576132cb61463a565b5b0492506004810190505b606483106132f957606483816132ef576132ee61463a565b5b0492506002810190505b600a8310613308576001810190505b80915050919050565b6040518060c0016040528060008152602001600073ffffffffffffffffffffffffffffffffffffffff1681526020016060815260200160008152602001600015158152602001600081525090565b6040518060800160405280600073ffffffffffffffffffffffffffffffffffffffff16815260200160608152602001600081526020016000151581525090565b6000604051905090565b600080fd5b600080fd5b60007fffffffff0000000000000000000000000000000000000000000000000000000082169050919050565b6133e8816133b3565b81146133f357600080fd5b50565b600081359050613405816133df565b92915050565b600060208284031215613421576134206133a9565b5b600061342f848285016133f6565b91505092915050565b60008115159050919050565b61344d81613438565b82525050565b60006020820190506134686000830184613444565b92915050565b600081519050919050565b600082825260208201905092915050565b60005b838110156134a857808201518184015260208101905061348d565b60008484015250505050565b6000601f19601f8301169050919050565b60006134d08261346e565b6134da8185613479565b93506134ea81856020860161348a565b6134f3816134b4565b840191505092915050565b6000602082019050818103600083015261351881846134c5565b905092915050565b6000819050919050565b61353381613520565b811461353e57600080fd5b50565b6000813590506135508161352a565b92915050565b60006020828403121561356c5761356b6133a9565b5b600061357a84828501613541565b91505092915050565b600073ffffffffffffffffffffffffffffffffffffffff82169050919050565b60006135ae82613583565b9050919050565b6135be816135a3565b82525050565b60006020820190506135d960008301846135b5565b92915050565b6135e8816135a3565b81146135f357600080fd5b50565b600081359050613605816135df565b92915050565b60008060408385031215613622576136216133a9565b5b6000613630858286016135f6565b925050602061364185828601613541565b9150509250929050565b600080600060608486031215613664576136636133a9565b5b6000613672868287016135f6565b9350506020613683868287016135f6565b925050604061369486828701613541565b9150509250925092565b6000602082840312156136b4576136b36133a9565b5b60006136c2848285016135f6565b91505092915050565b600081519050919050565b600082825260208201905092915050565b6000819050602082019050919050565b61370081613520565b82525050565b61370f816135a3565b82525050565b600082825260208201905092915050565b60006137318261346e565b61373b8185613715565b935061374b81856020860161348a565b613754816134b4565b840191505092915050565b61376881613438565b82525050565b600060c08301600083015161378660008601826136f7565b5060208301516137996020860182613706565b50604083015184820360408601526137b18282613726565b91505060608301516137c660608601826136f7565b5060808301516137d9608086018261375f565b5060a08301516137ec60a08601826136f7565b508091505092915050565b6000613803838361376e565b905092915050565b6000602082019050919050565b6000613823826136cb565b61382d81856136d6565b93508360208202850161383f856136e7565b8060005b8581101561387b578484038952815161385c85826137f7565b94506138678361380b565b925060208a01995050600181019050613843565b50829750879550505050505092915050565b600060208201905081810360008301526138a78184613818565b905092915050565b6138b881613520565b82525050565b60006020820190506138d360008301846138af565b92915050565b600080fd5b600080fd5b7f4e487b7100000000000000000000000000000000000000000000000000000000600052604160045260246000fd5b61391b826134b4565b810181811067ffffffffffffffff8211171561393a576139396138e3565b5b80604052505050565b600061394d61339f565b90506139598282613912565b919050565b600067ffffffffffffffff821115613979576139786138e3565b5b613982826134b4565b9050602081019050919050565b82818337600083830152505050565b60006139b16139ac8461395e565b613943565b9050828152602081018484840111156139cd576139cc6138de565b5b6139d884828561398f565b509392505050565b600082601f8301126139f5576139f46138d9565b5b8135613a0584826020860161399e565b91505092915050565b60008060408385031215613a2557613a246133a9565b5b600083013567ffffffffffffffff811115613a4357613a426133ae565b5b613a4f858286016139e0565b9250506020613a6085828601613541565b9150509250929050565b613a7381613438565b8114613a7e57600080fd5b50565b600081359050613a9081613a6a565b92915050565b60008060408385031215613aad57613aac6133a9565b5b6000613abb858286016135f6565b9250506020613acc85828601613a81565b9150509250929050565b6000608082019050613aeb60008301876135b5565b8181036020830152613afd81866134c5565b9050613b0c60408301856138af565b613b196060830184613444565b95945050505050565b600067ffffffffffffffff821115613b3d57613b3c6138e3565b5b613b46826134b4565b9050602081019050919050565b6000613b66613b6184613b22565b613943565b905082815260208101848484011115613b8257613b816138de565b5b613b8d84828561398f565b509392505050565b600082601f830112613baa57613ba96138d9565b5b8135613bba848260208601613b53565b91505092915050565b60008060008060808587031215613bdd57613bdc6133a9565b5b6000613beb878288016135f6565b9450506020613bfc878288016135f6565b9350506040613c0d87828801613541565b925050606085013567ffffffffffffffff811115613c2e57613c2d6133ae565b5b613c3a87828801613b95565b91505092959194509250565b6000608083016000830151613c5e6000860182613706565b5060208301518482036020860152613c768282613726565b9150506040830151613c8b60408601826136f7565b506060830151613c9e606086018261375f565b508091505092915050565b60006020820190508181036000830152613cc38184613c46565b905092915050565b600060c082019050613ce060008301896138af565b613ced60208301886135b5565b8181036040830152613cff81876134c5565b9050613d0e60608301866138af565b613d1b6080830185613444565b613d2860a08301846138af565b979650505050505050565b60008060408385031215613d4a57613d496133a9565b5b6000613d5885828601613541565b9250506020613d6985828601613541565b9150509250929050565b60008060408385031215613d8a57613d896133a9565b5b6000613d98858286016135f6565b9250506020613da9858286016135f6565b9150509250929050565b7f4e487b7100000000000000000000000000000000000000000000000000000000600052602260045260246000fd5b60006002820490506001821680613dfa57607f821691505b602082108103613e0d57613e0c613db3565b5b50919050565b7f4e6f7420666f722073616c650000000000000000000000000000000000000000600082015250565b6000613e49600c83613479565b9150613e5482613e13565b602082019050919050565b60006020820190508181036000830152613e7881613e3c565b9050919050565b7f496e73756666696369656e74207061796d656e74000000000000000000000000600082015250565b6000613eb5601483613479565b9150613ec082613e7f565b602082019050919050565b60006020820190508181036000830152613ee481613ea8565b9050919050565b7f596f7520616c7265616479206f776e2074686973206173736574000000000000600082015250565b6000613f21601a83613479565b9150613f2c82613eeb565b602082019050919050565b60006020820190508181036000830152613f5081613f14565b9050919050565b6000606082019050613f6c60008301866135b5565b613f7960208301856138af565b613f8660408301846135b5565b949350505050565b7f4e487b7100000000000000000000000000000000000000000000000000000000600052601160045260246000fd5b6000613fc882613520565b91507fffffffffffffffffffffffffffffffffffffffffffffffffffffffffffffffff8203613ffa57613ff9613f8e565b5b600182019050919050565b7f4e487b7100000000000000000000000000000000000000000000000000000000600052603260045260246000fd5b7f4e6f7420746865206f776e657200000000000000000000000000000000000000600082015250565b600061406a600d83613479565b915061407582614034565b602082019050919050565b600060208201905081810360008301526140998161405d565b9050919050565b7f4173736574206973206e6f74206c697374656420666f722073616c6500000000600082015250565b60006140d6601c83613479565b91506140e1826140a0565b602082019050919050565b60006020820190508181036000830152614105816140c9565b9050919050565b7f416c726561647920617070726f76656400000000000000000000000000000000600082015250565b6000614142601083613479565b915061414d8261410c565b602082019050919050565b6000602082019050818103600083015261417181614135565b9050919050565b7f496e76616c696420726571756573740000000000000000000000000000000000600082015250565b60006141ae600f83613479565b91506141b982614178565b602082019050919050565b600060208201905081810360008301526141dd816141a1565b9050919050565b60008190508160005260206000209050919050565b60006020601f8301049050919050565b600082821b905092915050565b6000600883026142467fffffffffffffffffffffffffffffffffffffffffffffffffffffffffffffffff82614209565b6142508683614209565b95508019841693508086168417925050509392505050565b6000819050919050565b600061428d61428861428384613520565b614268565b613520565b9050919050565b6000819050919050565b6142a783614272565b6142bb6142b382614294565b848454614216565b825550505050565b600090565b6142d06142c3565b6142db81848461429e565b505050565b5b818110156142ff576142f46000826142c8565b6001810190506142e1565b5050565b601f82111561434457614315816141e4565b61431e846141f9565b8101602085101561432d578190505b614341614339856141f9565b8301826142e0565b50505b505050565b600082821c905092915050565b600061436760001984600802614349565b1980831691505092915050565b60006143808383614356565b9150826002028217905092915050565b6143998261346e565b67ffffffffffffffff8111156143b2576143b16138e3565b5b6143bc8254613de2565b6143c7828285614303565b600060209050601f8311600181146143fa57600084156143e8578287015190505b6143f28582614374565b86555061445a565b601f198416614408866141e4565b60005b828110156144305784890151825560018201915060208501945060208101905061440b565b8683101561444d5784890151614449601f891682614356565b8355505b6001600288020188555050505b505050505050565b600081905092915050565b60006144788261346e565b6144828185614462565b935061449281856020860161348a565b80840191505092915050565b60006144aa828561446d565b91506144b6828461446d565b91508190509392505050565b7f5072696365206d7573742062652067726561746572207468616e203000000000600082015250565b60006144f8601c83613479565b9150614503826144c2565b602082019050919050565b60006020820190508181036000830152614527816144eb565b9050919050565b600081519050919050565b600082825260208201905092915050565b60006145558261452e565b61455f8185614539565b935061456f81856020860161348a565b614578816134b4565b840191505092915050565b600060808201905061459860008301876135b5565b6145a560208301866135b5565b6145b260408301856138af565b81810360608301526145c4818461454a565b905095945050505050565b6000815190506145de816133df565b92915050565b6000602082840312156145fa576145f96133a9565b5b6000614608848285016145cf565b91505092915050565b600060408201905061462660008301856135b5565b61463360208301846138af565b9392505050565b7f4e487b7100000000000000000000000000000000000000000000000000000000600052601260045260246000fdfea26469706673582212204b0833d0ebb526a40fc45fec4869f18980520e4f9ae5ae874c67771779f88eaf64736f6c634300081c0033",
  "linkReferences": {},
  "deployedLinkReferences": {}
}