{
  "_format": "hh-sol-artifact-1",
  "contractName": "RealEstateToken",
  "sourceName": "contracts/RealEstateToken.sol",
  "abi": [
    {
      "inputs": [],
      "stateMutability": "nonpayable",
      "type": "constructor"
    },
    {
      "inputs": [
        {
          "internalType": "address",
          "name": "sender",
          "type": "address"
        },
        {
          "internalType": "uint256",
          "name": "tokenId",
          "type": "uint256"
        },
        {
          "internalType": "address",
          "name": "owner",
          "type": "address"
        }
      ],
      "name": "ERC721IncorrectOwner",
      "type": "error"
    },
    {
      "inputs": [
        {
          "internalType": "address",
          "name": "operator",
          "type": "address"
        },
        {
          "internalType": "uint256",
          "name": "tokenId",
          "type": "uint256"
        }
      ],
      "name": "ERC721InsufficientApproval",
      "type": "error"
    },
    {
      "inputs": [
        {
          "internalType": "address",
          "name": "approver",
          "type": "address"
        }
      ],
      "name": "ERC721InvalidApprover",
      "type": "error"
    },
    {
      "inputs": [
        {
          "internalType": "address",
          "name": "operator",
          "type": "address"
        }
      ],
      "name": "ERC721InvalidOperator",
      "type": "error"
    },
    {
      "inputs": [
        {
          "internalType": "address",
          "name": "owner",
          "type": "address"
        }
      ],
      "name": "ERC721InvalidOwner",
      "type": "error"
    },
    {
      "inputs": [
        {
          "internalType": "address",
          "name": "receiver",
          "type": "address"
        }
      ],
      "name": "ERC721InvalidReceiver",
      "type": "error"
    },
    {
      "inputs": [
        {
          "internalType": "address",
          "name": "sender",
          "type": "address"
        }
      ],
      "name": "ERC721InvalidSender",
      "type": "error"
    },
    {
      "inputs": [
        {
          "internalType": "uint256",
          "name": "tokenId",
          "type": "uint256"
        }
      ],
      "name": "ERC721NonexistentToken",
      "type": "error"
    },
    {
      "inputs": [
        {
          "internalType": "address",
          "name": "owner",
          "type": "address"
        }
      ],
      "name": "OwnableInvalidOwner",
      "type": "error"
    },
    {
      "inputs": [
        {
          "internalType": "address",
          "name": "account",
          "type": "address"
        }
      ],
      "name": "OwnableUnauthorizedAccount",
      "type": "error"
    },
    {
      "anonymous": false,
      "inputs": [
        {
          "indexed": true,
          "internalType": "address",
          "name": "owner",
          "type": "address"
        },
        {
          "indexed": true,
          "internalType": "address",
          "name": "approved",
          "type": "address"
        },
        {
          "indexed": true,
          "internalType": "uint256",
          "name": "tokenId",
          "type": "uint256"
        }
      ],
      "name": "Approval",
      "type": "event"
    },
    {
      "anonymous": false,
      "inputs": [
        {
          "indexed": true,
          "internalType": "address",
          "name": "owner",
          "type": "address"
        },
        {
          "indexed": true,
          "internalType": "address",
          "name": "operator",
          "type": "address"
        },
        {
          "indexed": false,
          "internalType": "bool",
          "name": "approved",
          "type": "bool"
        }
      ],
      "name": "ApprovalForAll",
      "type": "event"
    },
    {
      "anonymous": false,
      "inputs": [
        {
          "indexed": false,
          "internalType": "uint256",
          "name": "_fromTokenId",
          "type": "uint256"
        },
        {
          "indexed": false,
          "internalType": "uint256",
          "name": "_toTokenId",
          "type": "uint256"
        }
      ],
      "name": "BatchMetadataUpdate",
      "type": "event"
    },
    {
      "anonymous": false,
      "inputs": [
        {
          "indexed": false,
          "internalType": "uint256",
          "name": "_tokenId",
          "type": "uint256"
        }
      ],
      "name": "MetadataUpdate",
      "type": "event"
    },
    {
      "anonymous": false,
      "inputs": [
        {
          "indexed": true,
          "internalType": "address",
          "name": "previousOwner",
          "type": "address"
        },
        {
          "indexed": true,
          "internalType": "address",
          "name": "newOwner",
          "type": "address"
        }
      ],
      "name": "OwnershipTransferred",
      "type": "event"
    },
    {
      "anonymous": false,
      "inputs": [
        {
          "indexed": true,
          "internalType": "address",
          "name": "from",
          "type": "address"
        },
        {
          "indexed": true,
          "internalType": "address",
          "name": "to",
          "type": "address"
        },
        {
          "indexed": true,
          "internalType": "uint256",
          "name": "tokenId",
          "type": "uint256"
        }
      ],
      "name": "Transfer",
      "type": "event"
    },
    {
      "inputs": [
        {
          "internalType": "address",
          "name": "to",
          "type": "address"
        },
        {
          "internalType": "uint256",
          "name": "tokenId",
          "type": "uint256"
        }
      ],
      "name": "approve",
      "outputs": [],
      "stateMutability": "nonpayable",
      "type": "function"
    },
    {
      "inputs": [
        {
          "internalType": "uint256",
          "name": "",
          "type": "uint256"
        }
      ],
      "name": "assets",
      "outputs": [
        {
          "internalType": "uint256",
          "name": "tokenId",
          "type": "uint256"
        },
        {
          "internalType": "address",
          "name": "owner",
          "type": "address"
        },
        {
          "internalType": "string",
          "name": "tokenURI",
          "type": "string"
        },
        {
          "internalType": "uint256",
          "name": "valuation",
          "type": "uint256"
        },
        {
          "internalType": "bool",
          "name": "forSale",
          "type": "bool"
        },
        {
          "internalType": "uint256",
          "name": "price",
          "type": "uint256"
        }
      ],
      "stateMutability": "view",
      "type": "function"
    },
    {
      "inputs": [
        {
          "internalType": "address",
          "name": "owner",
          "type": "address"
        }
      ],
      "name": "balanceOf",
      "outputs": [
        {
          "internalType": "uint256",
          "name": "",
          "type": "uint256"
        }
      ],
      "stateMutability": "view",
      "type": "function"
    },
    {
      "inputs": [
        {
          "internalType": "uint256",
          "name": "_tokenId",
          "type": "uint256"
        }
      ],
      "name": "buyAsset",
      "outputs": [],
      "stateMutability": "payable",
      "type": "function"
    },
    {
      "inputs": [
        {
          "internalType": "uint256",
          "name": "_tokenId",
          "type": "uint256"
        }
      ],
      "name": "delistAsset",
      "outputs": [],
      "stateMutability": "nonpayable",
      "type": "function"
    },
    {
      "inputs": [],
      "name": "getAllAssetsForSale",
      "outputs": [
        {
          "components": [
            {
              "internalType": "uint256",
              "name": "tokenId",
              "type": "uint256"
            },
            {
              "internalType": "address",
              "name": "owner",
              "type": "address"
            },
            {
              "internalType": "string",
              "name": "tokenURI",
              "type": "string"
            },
            {
              "internalType": "uint256",
              "name": "valuation",
              "type": "uint256"
            },
            {
              "internalType": "bool",
              "name": "forSale",
              "type": "bool"
            },
            {
              "internalType": "uint256",
              "name": "price",
              "type": "uint256"
            }
          ],
          "internalType": "struct RealEstateToken.Asset[]",
          "name": "",
          "type": "tuple[]"
        }
      ],
      "stateMutability": "view",
      "type": "function"
    },
    {
      "inputs": [
        {
          "internalType": "uint256",
          "name": "tokenId",
          "type": "uint256"
        }
      ],
      "name": "getApproved",
      "outputs": [
        {
          "internalType": "address",
          "name": "",
          "type": "address"
        }
      ],
      "stateMutability": "view",
      "type": "function"
    },
    {
      "inputs": [
        {
          "internalType": "address",
          "name": "_owner",
          "type": "address"
        }
      ],
      "name": "getAssetsByOwner",
      "outputs": [
        {
          "components": [
            {
              "internalType": "uint256",
              "name": "tokenId",
              "type": "uint256"
            },
            {
              "internalType": "address",
              "name": "owner",
              "type": "address"
            },
            {
              "internalType": "string",
              "name": "tokenURI",
              "type": "string"
            },
            {
              "internalType": "uint256",
              "name": "valuation",
              "type": "uint256"
            },
            {
              "internalType": "bool",
              "name": "forSale",
              "type": "bool"
            },
            {
              "internalType": "uint256",
              "name": "price",
              "type": "uint256"
            }
          ],
          "internalType": "struct RealEstateToken.Asset[]",
          "name": "",
          "type": "tuple[]"
        }
      ],
      "stateMutability": "view",
      "type": "function"
    },
    {
      "inputs": [
        {
          "internalType": "address",
          "name": "owner",
          "type": "address"
        },
        {
          "internalType": "address",
          "name": "operator",
          "type": "address"
        }
      ],
      "name": "isApprovedForAll",
      "outputs": [
        {
          "internalType": "bool",
          "name": "",
          "type": "bool"
        }
      ],
      "stateMutability": "view",
      "type": "function"
    },
    {
      "inputs": [
        {
          "internalType": "uint256",
          "name": "_tokenId",
          "type": "uint256"
        },
        {
          "internalType": "uint256",
          "name": "_price",
          "type": "uint256"
        }
      ],
      "name": "listForSale",
      "outputs": [],
      "stateMutability": "nonpayable",
      "type": "function"
    },
    {
      "inputs": [
        {
          "internalType": "string",
          "name": "_tokenURI",
          "type": "string"
        },
        {
          "internalType": "uint256",
          "name": "_valuation",
          "type": "uint256"
        }
      ],
      "name": "mintAsset",
      "outputs": [],
      "stateMutability": "nonpayable",
      "type": "function"
    },
    {
      "inputs": [],
      "name": "name",
      "outputs": [
        {
          "internalType": "string",
          "name": "",
          "type": "string"
        }
      ],
      "stateMutability": "view",
      "type": "function"
    },
    {
      "inputs": [],
      "name": "nextTokenId",
      "outputs": [
        {
          "internalType": "uint256",
          "name": "",
          "type": "uint256"
        }
      ],
      "stateMutability": "view",
      "type": "function"
    },
    {
      "inputs": [],
      "name": "owner",
      "outputs": [
        {
          "internalType": "address",
          "name": "",
          "type": "address"
        }
      ],
      "stateMutability": "view",
      "type": "function"
    },
    {
      "inputs": [
        {
          "internalType": "uint256",
          "name": "tokenId",
          "type": "uint256"
        }
      ],
      "name": "ownerOf",
      "outputs": [
        {
          "internalType": "address",
          "name": "",
          "type": "address"
        }
      ],
      "stateMutability": "view",
      "type": "function"
    },
    {
      "inputs": [],
      "name": "renounceOwnership",
      "outputs": [],
      "stateMutability": "nonpayable",
      "type": "function"
    },
    {
      "inputs": [
        {
          "internalType": "address",
          "name": "from",
          "type": "address"
        },
        {
          "internalType": "address",
          "name": "to",
          "type": "address"
        },
        {
          "internalType": "uint256",
          "name": "tokenId",
          "type": "uint256"
        }
      ],
      "name": "safeTransferFrom",
      "outputs": [],
      "stateMutability": "nonpayable",
      "type": "function"
    },
    {
      "inputs": [
        {
          "internalType": "address",
          "name": "from",
          "type": "address"
        },
        {
          "internalType": "address",
          "name": "to",
          "type": "address"
        },
        {
          "internalType": "uint256",
          "name": "tokenId",
          "type": "uint256"
        },
        {
          "internalType": "bytes",
          "name": "data",
          "type": "bytes"
        }
      ],
      "name": "safeTransferFrom",
      "outputs": [],
      "stateMutability": "nonpayable",
      "type": "function"
    },
    {
      "inputs": [
        {
          "internalType": "address",
          "name": "operator",
          "type": "address"
        },
        {
          "internalType": "bool",
          "name": "approved",
          "type": "bool"
        }
      ],
      "name": "setApprovalForAll",
      "outputs": [],
      "stateMutability": "nonpayable",
      "type": "function"
    },
    {
      "inputs": [
        {
          "internalType": "bytes4",
          "name": "interfaceId",
          "type": "bytes4"
        }
      ],
      "name": "supportsInterface",
      "outputs": [
        {
          "internalType": "bool",
          "name": "",
          "type": "bool"
        }
      ],
      "stateMutability": "view",
      "type": "function"
    },
    {
      "inputs": [],
      "name": "symbol",
      "outputs": [
        {
          "internalType": "string",
          "name": "",
          "type": "string"
        }
      ],
      "stateMutability": "view",
      "type": "function"
    },
    {
      "inputs": [
        {
          "internalType": "uint256",
          "name": "tokenId",
          "type": "uint256"
        }
      ],
      "name": "tokenURI",
      "outputs": [
        {
          "internalType": "string",
          "name": "",
          "type": "string"
        }
      ],
      "stateMutability": "view",
      "type": "function"
    },
    {
      "inputs": [
        {
          "internalType": "address",
          "name": "_to",
          "type": "address"
        },
        {
          "internalType": "uint256",
          "name": "_tokenId",
          "type": "uint256"
        }
      ],
      "name": "transferAsset",
      "outputs": [],
      "stateMutability": "nonpayable",
      "type": "function"
    },
    {
      "inputs": [
        {
          "internalType": "address",
          "name": "from",
          "type": "address"
        },
        {
          "internalType": "address",
          "name": "to",
          "type": "address"
        },
        {
          "internalType": "uint256",
          "name": "tokenId",
          "type": "uint256"
        }
      ],
      "name": "transferFrom",
      "outputs": [],
      "stateMutability": "nonpayable",
      "type": "function"
    },
    {
      "inputs": [
        {
          "internalType": "address",
          "name": "newOwner",
          "type": "address"
        }
      ],
      "name": "transferOwnership",
      "outputs": [],
      "stateMutability": "nonpayable",
      "type": "function"
    }
  ],
  "bytecode": "0x608060405234801561001057600080fd5b50336040518060400160405280600f81526020017f5265616c457374617465546f6b656e00000000000000000000000000000000008152506040518060400160405280600381526020017f5245540000000000000000000000000000000000000000000000000000000000815250816000908161008d919061043d565b50806001908161009d919061043d565b505050600073ffffffffffffffffffffffffffffffffffffffff168173ffffffffffffffffffffffffffffffffffffffff16036101125760006040517f1e4fbdf70000000000000000000000000000000000000000000000000000000081526004016101099190610550565b60405180910390fd5b6101218161012760201b60201c565b5061056b565b6000600760009054906101000a900473ffffffffffffffffffffffffffffffffffffffff16905081600760006101000a81548173ffffffffffffffffffffffffffffffffffffffff021916908373ffffffffffffffffffffffffffffffffffffffff1602179055508173ffffffffffffffffffffffffffffffffffffffff168173ffffffffffffffffffffffffffffffffffffffff167f8be0079c531659141344cd1fd0a4f28419497f9722a3daafe3b4186f6b6457e060405160405180910390a35050565b600081519050919050565b7f4e487b7100000000000000000000000000000000000000000000000000000000600052604160045260246000fd5b7f4e487b7100000000000000000000000000000000000000000000000000000000600052602260045260246000fd5b6000600282049050600182168061026e57607f821691505b60208210810361028157610280610227565b5b50919050565b60008190508160005260206000209050919050565b60006020601f8301049050919050565b600082821b905092915050565b6000600883026102e97fffffffffffffffffffffffffffffffffffffffffffffffffffffffffffffffff826102ac565b6102f386836102ac565b95508019841693508086168417925050509392505050565b6000819050919050565b6000819050919050565b600061033a6103356103308461030b565b610315565b61030b565b9050919050565b6000819050919050565b6103548361031f565b61036861036082610341565b8484546102b9565b825550505050565b600090565b61037d610370565b61038881848461034b565b505050565b5b818110156103ac576103a1600082610375565b60018101905061038e565b5050565b601f8211156103f1576103c281610287565b6103cb8461029c565b810160208510156103da578190505b6103ee6103e68561029c565b83018261038d565b50505b505050565b600082821c905092915050565b6000610414600019846008026103f6565b1980831691505092915050565b600061042d8383610403565b9150826002028217905092915050565b610446826101ed565b67ffffffffffffffff81111561045f5761045e6101f8565b5b6104698254610256565b6104748282856103b0565b600060209050601f8311600181146104a75760008415610495578287015190505b61049f8582610421565b865550610507565b601f1984166104b586610287565b60005b828110156104dd578489015182556001820191506020850194506020810190506104b8565b868310156104fa57848901516104f6601f891682610403565b8355505b6001600288020188555050505b505050505050565b600073ffffffffffffffffffffffffffffffffffffffff82169050919050565b600061053a8261050f565b9050919050565b61054a8161052f565b82525050565b60006020820190506105656000830184610541565b92915050565b613d9c8061057a6000396000f3fe6080604052600436106101665760003560e01c806370a08231116100d1578063a22cb4651161008a578063cf35bdd011610064578063cf35bdd01461052b578063e80d7fec1461056d578063e985e9c514610596578063f2fde38b146105d357610166565b8063a22cb4651461049c578063b88d4fde146104c5578063c87b56dd146104ee57610166565b806370a082311461039e578063715018a6146103db57806375794a3c146103f25780638da5cb5b1461041d57806395d89b41146104485780639776a6431461047357610166565b8063276f093411610123578063276f09341461027e5780632bedc4e2146102bb57806342842e0e146102e657806343d7c7781461030f5780635c921eb9146103385780636352211e1461036157610166565b806301ffc9a71461016b57806306fdde03146101a8578063081812fc146101d3578063095ea7b314610210578063110d35b81461023957806323b872dd14610255575b600080fd5b34801561017757600080fd5b50610192600480360381019061018d9190612cb1565b6105fc565b60405161019f9190612cf9565b60405180910390f35b3480156101b457600080fd5b506101bd61065d565b6040516101ca9190612da4565b60405180910390f35b3480156101df57600080fd5b506101fa60048036038101906101f59190612dfc565b6106ef565b6040516102079190612e6a565b60405180910390f35b34801561021c57600080fd5b5061023760048036038101906102329190612eb1565b61070b565b005b610253600480360381019061024e9190612dfc565b610721565b005b34801561026157600080fd5b5061027c60048036038101906102779190612ef1565b610a63565b005b34801561028a57600080fd5b506102a560048036038101906102a09190612f44565b610b65565b6040516102b29190613133565b60405180910390f35b3480156102c757600080fd5b506102d0610e53565b6040516102dd9190613133565b60405180910390f35b3480156102f257600080fd5b5061030d60048036038101906103089190612ef1565b6110bf565b005b34801561031b57600080fd5b5061033660048036038101906103319190612dfc565b6110df565b005b34801561034457600080fd5b5061035f600480360381019061035a9190612eb1565b61120d565b005b34801561036d57600080fd5b5061038860048036038101906103839190612dfc565b6112e7565b6040516103959190612e6a565b60405180910390f35b3480156103aa57600080fd5b506103c560048036038101906103c09190612f44565b6112f9565b6040516103d29190613164565b60405180910390f35b3480156103e757600080fd5b506103f06113b3565b005b3480156103fe57600080fd5b506104076113c7565b6040516104149190613164565b60405180910390f35b34801561042957600080fd5b506104326113cd565b60405161043f9190612e6a565b60405180910390f35b34801561045457600080fd5b5061045d6113f7565b60405161046a9190612da4565b60405180910390f35b34801561047f57600080fd5b5061049a600480360381019061049591906132b4565b611489565b005b3480156104a857600080fd5b506104c360048036038101906104be919061333c565b6115b9565b005b3480156104d157600080fd5b506104ec60048036038101906104e7919061341d565b6115cf565b005b3480156104fa57600080fd5b5061051560048036038101906105109190612dfc565b6115f4565b6040516105229190612da4565b60405180910390f35b34801561053757600080fd5b50610552600480360381019061054d9190612dfc565b611707565b604051610564969594939291906134a0565b60405180910390f35b34801561057957600080fd5b50610594600480360381019061058f9190613508565b6117f8565b005b3480156105a257600080fd5b506105bd60048036038101906105b89190613548565b6118ff565b6040516105ca9190612cf9565b60405180910390f35b3480156105df57600080fd5b506105fa60048036038101906105f59190612f44565b611993565b005b6000634906490660e01b7bffffffffffffffffffffffffffffffffffffffffffffffffffffffff1916827bffffffffffffffffffffffffffffffffffffffffffffffffffffffff19161480610656575061065582611a19565b5b9050919050565b60606000805461066c906135b7565b80601f0160208091040260200160405190810160405280929190818152602001828054610698906135b7565b80156106e55780601f106106ba576101008083540402835291602001916106e5565b820191906000526020600020905b8154815290600101906020018083116106c857829003601f168201915b5050505050905090565b60006106fa82611afb565b5061070482611b83565b9050919050565b61071d8282610718611bc0565b611bc8565b5050565b6000600960008381526020019081526020016000206040518060c0016040529081600082015481526020016001820160009054906101000a900473ffffffffffffffffffffffffffffffffffffffff1673ffffffffffffffffffffffffffffffffffffffff1673ffffffffffffffffffffffffffffffffffffffff1681526020016002820180546107b1906135b7565b80601f01602080910402602001604051908101604052809291908181526020018280546107dd906135b7565b801561082a5780601f106107ff5761010080835404028352916020019161082a565b820191906000526020600020905b81548152906001019060200180831161080d57829003601f168201915b50505050508152602001600382015481526020016004820160009054906101000a900460ff16151515158152602001600582015481525050905080608001516108a8576040517f08c379a000000000000000000000000000000000000000000000000000000000815260040161089f90613634565b60405180910390fd5b8060a001513410156108ef576040517f08c379a00000000000000000000000000000000000000000000000000000000081526004016108e6906136a0565b60405180910390fd5b806020015173ffffffffffffffffffffffffffffffffffffffff163373ffffffffffffffffffffffffffffffffffffffff1603610961576040517f08c379a00000000000000000000000000000000000000000000000000000000081526004016109589061370c565b60405180910390fd5b806020015173ffffffffffffffffffffffffffffffffffffffff166108fc8260a001519081150290604051600060405180830381858888f193505050501580156109af573d6000803e3d6000fd5b506109bf81602001513384611bda565b336009600084815260200190815260200160002060010160006101000a81548173ffffffffffffffffffffffffffffffffffffffff021916908373ffffffffffffffffffffffffffffffffffffffff16021790555060006009600084815260200190815260200160002060040160006101000a81548160ff021916908315150217905550600060096000848152602001908152602001600020600501819055505050565b600073ffffffffffffffffffffffffffffffffffffffff168273ffffffffffffffffffffffffffffffffffffffff1603610ad55760006040517f64a0ae92000000000000000000000000000000000000000000000000000000008152600401610acc9190612e6a565b60405180910390fd5b6000610ae98383610ae4611bc0565b611d47565b90508373ffffffffffffffffffffffffffffffffffffffff168173ffffffffffffffffffffffffffffffffffffffff1614610b5f578382826040517f64283d7b000000000000000000000000000000000000000000000000000000008152600401610b569392919061372c565b60405180910390fd5b50505050565b6060600060085490506000805b82811015610bff578473ffffffffffffffffffffffffffffffffffffffff166009600083815260200190815260200160002060010160009054906101000a900473ffffffffffffffffffffffffffffffffffffffff1673ffffffffffffffffffffffffffffffffffffffff1603610bf2578180610bee90613792565b9250505b8080600101915050610b72565b5060008167ffffffffffffffff811115610c1c57610c1b613189565b5b604051908082528060200260200182016040528015610c5557816020015b610c42612bf7565b815260200190600190039081610c3a5790505b5090506000805b84811015610e46578673ffffffffffffffffffffffffffffffffffffffff166009600083815260200190815260200160002060010160009054906101000a900473ffffffffffffffffffffffffffffffffffffffff1673ffffffffffffffffffffffffffffffffffffffff1603610e3957600960008281526020019081526020016000206040518060c0016040529081600082015481526020016001820160009054906101000a900473ffffffffffffffffffffffffffffffffffffffff1673ffffffffffffffffffffffffffffffffffffffff1673ffffffffffffffffffffffffffffffffffffffff168152602001600282018054610d5b906135b7565b80601f0160208091040260200160405190810160405280929190818152602001828054610d87906135b7565b8015610dd45780601f10610da957610100808354040283529160200191610dd4565b820191906000526020600020905b815481529060010190602001808311610db757829003601f168201915b50505050508152602001600382015481526020016004820160009054906101000a900460ff16151515158152602001600582015481525050838381518110610e1f57610e1e6137da565b5b60200260200101819052508180610e3590613792565b9250505b8080600101915050610c5c565b5081945050505050919050565b6060600060085490506000805b82811015610ead576009600082815260200190815260200160002060040160009054906101000a900460ff1615610ea0578180610e9c90613792565b9250505b8080600101915050610e60565b5060008167ffffffffffffffff811115610eca57610ec9613189565b5b604051908082528060200260200182016040528015610f0357816020015b610ef0612bf7565b815260200190600190039081610ee85790505b5090506000805b848110156110b4576009600082815260200190815260200160002060040160009054906101000a900460ff16156110a757600960008281526020019081526020016000206040518060c0016040529081600082015481526020016001820160009054906101000a900473ffffffffffffffffffffffffffffffffffffffff1673ffffffffffffffffffffffffffffffffffffffff1673ffffffffffffffffffffffffffffffffffffffff168152602001600282018054610fc9906135b7565b80601f0160208091040260200160405190810160405280929190818152602001828054610ff5906135b7565b80156110425780601f1061101757610100808354040283529160200191611042565b820191906000526020600020905b81548152906001019060200180831161102557829003601f168201915b50505050508152602001600382015481526020016004820160009054906101000a900460ff1615151515815260200160058201548152505083838151811061108d5761108c6137da565b5b602002602001018190525081806110a390613792565b9250505b8080600101915050610f0a565b508194505050505090565b6110da838383604051806020016040528060008152506115cf565b505050565b3373ffffffffffffffffffffffffffffffffffffffff166110ff826112e7565b73ffffffffffffffffffffffffffffffffffffffff1614611155576040517f08c379a000000000000000000000000000000000000000000000000000000000815260040161114c90613855565b60405180910390fd5b600115156009600083815260200190815260200160002060040160009054906101000a900460ff161515146111bf576040517f08c379a00000000000000000000000000000000000000000000000000000000081526004016111b6906138c1565b60405180910390fd5b60006009600083815260200190815260200160002060040160006101000a81548160ff0219169083151502179055506000600960008381526020019081526020016000206005018190555050565b3373ffffffffffffffffffffffffffffffffffffffff1661122d826112e7565b73ffffffffffffffffffffffffffffffffffffffff1614611283576040517f08c379a000000000000000000000000000000000000000000000000000000000815260040161127a90613855565b60405180910390fd5b61128e338383611bda565b816009600083815260200190815260200160002060010160006101000a81548173ffffffffffffffffffffffffffffffffffffffff021916908373ffffffffffffffffffffffffffffffffffffffff1602179055505050565b60006112f282611afb565b9050919050565b60008073ffffffffffffffffffffffffffffffffffffffff168273ffffffffffffffffffffffffffffffffffffffff160361136c5760006040517f89c62b640000000000000000000000000000000000000000000000000000000081526004016113639190612e6a565b60405180910390fd5b600360008373ffffffffffffffffffffffffffffffffffffffff1673ffffffffffffffffffffffffffffffffffffffff168152602001908152602001600020549050919050565b6113bb611f61565b6113c56000611fe8565b565b60085481565b6000600760009054906101000a900473ffffffffffffffffffffffffffffffffffffffff16905090565b606060018054611406906135b7565b80601f0160208091040260200160405190810160405280929190818152602001828054611432906135b7565b801561147f5780601f106114545761010080835404028352916020019161147f565b820191906000526020600020905b81548152906001019060200180831161146257829003601f168201915b5050505050905090565b6000600854905061149a33826120ae565b6114a481846120cc565b6040518060c001604052808281526020013373ffffffffffffffffffffffffffffffffffffffff1681526020018481526020018381526020016000151581526020016000815250600960008381526020019081526020016000206000820151816000015560208201518160010160006101000a81548173ffffffffffffffffffffffffffffffffffffffff021916908373ffffffffffffffffffffffffffffffffffffffff16021790555060408201518160020190816115649190613a8d565b506060820151816003015560808201518160040160006101000a81548160ff02191690831515021790555060a08201518160050155905050600860008154809291906115af90613792565b9190505550505050565b6115cb6115c4611bc0565b8383612128565b5050565b6115da848484610a63565b6115ee6115e5611bc0565b85858585612297565b50505050565b60606115ff82611afb565b506000600660008481526020019081526020016000208054611620906135b7565b80601f016020809104026020016040519081016040528092919081815260200182805461164c906135b7565b80156116995780601f1061166e57610100808354040283529160200191611699565b820191906000526020600020905b81548152906001019060200180831161167c57829003601f168201915b5050505050905060006116aa612448565b905060008151036116bf578192505050611702565b6000825111156116f45780826040516020016116dc929190613b9b565b60405160208183030381529060405292505050611702565b6116fd8461245f565b925050505b919050565b60096020528060005260406000206000915090508060000154908060010160009054906101000a900473ffffffffffffffffffffffffffffffffffffffff1690806002018054611756906135b7565b80601f0160208091040260200160405190810160405280929190818152602001828054611782906135b7565b80156117cf5780601f106117a4576101008083540402835291602001916117cf565b820191906000526020600020905b8154815290600101906020018083116117b257829003601f168201915b5050505050908060030154908060040160009054906101000a900460ff16908060050154905086565b3373ffffffffffffffffffffffffffffffffffffffff16611818836112e7565b73ffffffffffffffffffffffffffffffffffffffff161461186e576040517f08c379a000000000000000000000000000000000000000000000000000000000815260040161186590613855565b60405180910390fd5b600081116118b1576040517f08c379a00000000000000000000000000000000000000000000000000000000081526004016118a890613c0b565b60405180910390fd5b60016009600084815260200190815260200160002060040160006101000a81548160ff0219169083151502179055508060096000848152602001908152602001600020600501819055505050565b6000600560008473ffffffffffffffffffffffffffffffffffffffff1673ffffffffffffffffffffffffffffffffffffffff16815260200190815260200160002060008373ffffffffffffffffffffffffffffffffffffffff1673ffffffffffffffffffffffffffffffffffffffff16815260200190815260200160002060009054906101000a900460ff16905092915050565b61199b611f61565b600073ffffffffffffffffffffffffffffffffffffffff168173ffffffffffffffffffffffffffffffffffffffff1603611a0d5760006040517f1e4fbdf7000000000000000000000000000000000000000000000000000000008152600401611a049190612e6a565b60405180910390fd5b611a1681611fe8565b50565b60007f80ac58cd000000000000000000000000000000000000000000000000000000007bffffffffffffffffffffffffffffffffffffffffffffffffffffffff1916827bffffffffffffffffffffffffffffffffffffffffffffffffffffffff19161480611ae457507f5b5e139f000000000000000000000000000000000000000000000000000000007bffffffffffffffffffffffffffffffffffffffffffffffffffffffff1916827bffffffffffffffffffffffffffffffffffffffffffffffffffffffff1916145b80611af45750611af3826124c8565b5b9050919050565b600080611b0783612532565b9050600073ffffffffffffffffffffffffffffffffffffffff168173ffffffffffffffffffffffffffffffffffffffff1603611b7a57826040517f7e273289000000000000000000000000000000000000000000000000000000008152600401611b719190613164565b60405180910390fd5b80915050919050565b60006004600083815260200190815260200160002060009054906101000a900473ffffffffffffffffffffffffffffffffffffffff169050919050565b600033905090565b611bd5838383600161256f565b505050565b600073ffffffffffffffffffffffffffffffffffffffff168273ffffffffffffffffffffffffffffffffffffffff1603611c4c5760006040517f64a0ae92000000000000000000000000000000000000000000000000000000008152600401611c439190612e6a565b60405180910390fd5b6000611c5a83836000611d47565b9050600073ffffffffffffffffffffffffffffffffffffffff168173ffffffffffffffffffffffffffffffffffffffff1603611ccd57816040517f7e273289000000000000000000000000000000000000000000000000000000008152600401611cc49190613164565b60405180910390fd5b8373ffffffffffffffffffffffffffffffffffffffff168173ffffffffffffffffffffffffffffffffffffffff1614611d41578382826040517f64283d7b000000000000000000000000000000000000000000000000000000008152600401611d389392919061372c565b60405180910390fd5b50505050565b600080611d5384612532565b9050600073ffffffffffffffffffffffffffffffffffffffff168373ffffffffffffffffffffffffffffffffffffffff1614611d9557611d94818486612734565b5b600073ffffffffffffffffffffffffffffffffffffffff168173ffffffffffffffffffffffffffffffffffffffff1614611e2657611dd760008560008061256f565b6001600360008373ffffffffffffffffffffffffffffffffffffffff1673ffffffffffffffffffffffffffffffffffffffff168152602001908152602001600020600082825403925050819055505b600073ffffffffffffffffffffffffffffffffffffffff168573ffffffffffffffffffffffffffffffffffffffff1614611ea9576001600360008773ffffffffffffffffffffffffffffffffffffffff1673ffffffffffffffffffffffffffffffffffffffff168152602001908152602001600020600082825401925050819055505b846002600086815260200190815260200160002060006101000a81548173ffffffffffffffffffffffffffffffffffffffff021916908373ffffffffffffffffffffffffffffffffffffffff160217905550838573ffffffffffffffffffffffffffffffffffffffff168273ffffffffffffffffffffffffffffffffffffffff167fddf252ad1be2c89b69c2b068fc378daa952ba7f163c4a11628f55a4df523b3ef60405160405180910390a4809150509392505050565b611f69611bc0565b73ffffffffffffffffffffffffffffffffffffffff16611f876113cd565b73ffffffffffffffffffffffffffffffffffffffff1614611fe657611faa611bc0565b6040517f118cdaa7000000000000000000000000000000000000000000000000000000008152600401611fdd9190612e6a565b60405180910390fd5b565b6000600760009054906101000a900473ffffffffffffffffffffffffffffffffffffffff16905081600760006101000a81548173ffffffffffffffffffffffffffffffffffffffff021916908373ffffffffffffffffffffffffffffffffffffffff1602179055508173ffffffffffffffffffffffffffffffffffffffff168173ffffffffffffffffffffffffffffffffffffffff167f8be0079c531659141344cd1fd0a4f28419497f9722a3daafe3b4186f6b6457e060405160405180910390a35050565b6120c88282604051806020016040528060008152506127f8565b5050565b806006600084815260200190815260200160002090816120ec9190613a8d565b507ff8e1a15aba9398e019f0b49df1a4fde98ee17ae345cb5f6b5e2c27f5033e8ce78260405161211c9190613164565b60405180910390a15050565b600073ffffffffffffffffffffffffffffffffffffffff168273ffffffffffffffffffffffffffffffffffffffff160361219957816040517f5b08ba180000000000000000000000000000000000000000000000000000000081526004016121909190612e6a565b60405180910390fd5b80600560008573ffffffffffffffffffffffffffffffffffffffff1673ffffffffffffffffffffffffffffffffffffffff16815260200190815260200160002060008473ffffffffffffffffffffffffffffffffffffffff1673ffffffffffffffffffffffffffffffffffffffff16815260200190815260200160002060006101000a81548160ff0219169083151502179055508173ffffffffffffffffffffffffffffffffffffffff168373ffffffffffffffffffffffffffffffffffffffff167f17307eab39ab6107e8899845ad3d59bd9653f200f220920489ca2b5937696c318360405161228a9190612cf9565b60405180910390a3505050565b60008373ffffffffffffffffffffffffffffffffffffffff163b1115612441578273ffffffffffffffffffffffffffffffffffffffff1663150b7a02868685856040518563ffffffff1660e01b81526004016122f69493929190613c80565b6020604051808303816000875af192505050801561233257506040513d601f19601f8201168201806040525081019061232f9190613ce1565b60015b6123b6573d8060008114612362576040519150601f19603f3d011682016040523d82523d6000602084013e612367565b606091505b5060008151036123ae57836040517f64a0ae920000000000000000000000000000000000000000000000000000000081526004016123a59190612e6a565b60405180910390fd5b805181602001fd5b63150b7a0260e01b7bffffffffffffffffffffffffffffffffffffffffffffffffffffffff1916817bffffffffffffffffffffffffffffffffffffffffffffffffffffffff19161461243f57836040517f64a0ae920000000000000000000000000000000000000000000000000000000081526004016124369190612e6a565b60405180910390fd5b505b5050505050565b606060405180602001604052806000815250905090565b606061246a82611afb565b506000612475612448565b9050600081511161249557604051806020016040528060008152506124c0565b8061249f8461281c565b6040516020016124b0929190613b9b565b6040516020818303038152906040525b915050919050565b60007f01ffc9a7000000000000000000000000000000000000000000000000000000007bffffffffffffffffffffffffffffffffffffffffffffffffffffffff1916827bffffffffffffffffffffffffffffffffffffffffffffffffffffffff1916149050919050565b60006002600083815260200190815260200160002060009054906101000a900473ffffffffffffffffffffffffffffffffffffffff169050919050565b80806125a85750600073ffffffffffffffffffffffffffffffffffffffff168273ffffffffffffffffffffffffffffffffffffffff1614155b156126dc5760006125b884611afb565b9050600073ffffffffffffffffffffffffffffffffffffffff168373ffffffffffffffffffffffffffffffffffffffff161415801561262357508273ffffffffffffffffffffffffffffffffffffffff168173ffffffffffffffffffffffffffffffffffffffff1614155b8015612636575061263481846118ff565b155b1561267857826040517fa9fbf51f00000000000000000000000000000000000000000000000000000000815260040161266f9190612e6a565b60405180910390fd5b81156126da57838573ffffffffffffffffffffffffffffffffffffffff168273ffffffffffffffffffffffffffffffffffffffff167f8c5be1e5ebec7d5bd14f71427d1e84f3dd0314c0f7b2291e5b200ac8c7c3b92560405160405180910390a45b505b836004600085815260200190815260200160002060006101000a81548173ffffffffffffffffffffffffffffffffffffffff021916908373ffffffffffffffffffffffffffffffffffffffff16021790555050505050565b61273f8383836128ea565b6127f357600073ffffffffffffffffffffffffffffffffffffffff168373ffffffffffffffffffffffffffffffffffffffff16036127b457806040517f7e2732890000000000000000000000000000000000000000000000000000000081526004016127ab9190613164565b60405180910390fd5b81816040517f177e802f0000000000000000000000000000000000000000000000000000000081526004016127ea929190613d0e565b60405180910390fd5b505050565b61280283836129ab565b61281761280d611bc0565b6000858585612297565b505050565b60606000600161282b84612aa4565b01905060008167ffffffffffffffff81111561284a57612849613189565b5b6040519080825280601f01601f19166020018201604052801561287c5781602001600182028036833780820191505090505b509050600082602001820190505b6001156128df578080600190039150507f3031323334353637383961626364656600000000000000000000000000000000600a86061a8153600a85816128d3576128d2613d37565b5b0494506000850361288a575b819350505050919050565b60008073ffffffffffffffffffffffffffffffffffffffff168373ffffffffffffffffffffffffffffffffffffffff16141580156129a257508273ffffffffffffffffffffffffffffffffffffffff168473ffffffffffffffffffffffffffffffffffffffff161480612963575061296284846118ff565b5b806129a157508273ffffffffffffffffffffffffffffffffffffffff1661298983611b83565b73ffffffffffffffffffffffffffffffffffffffff16145b5b90509392505050565b600073ffffffffffffffffffffffffffffffffffffffff168273ffffffffffffffffffffffffffffffffffffffff1603612a1d5760006040517f64a0ae92000000000000000000000000000000000000000000000000000000008152600401612a149190612e6a565b60405180910390fd5b6000612a2b83836000611d47565b9050600073ffffffffffffffffffffffffffffffffffffffff168173ffffffffffffffffffffffffffffffffffffffff1614612a9f5760006040517f73c6ac6e000000000000000000000000000000000000000000000000000000008152600401612a969190612e6a565b60405180910390fd5b505050565b600080600090507a184f03e93ff9f4daa797ed6e38ed64bf6a1f0100000000000000008310612b02577a184f03e93ff9f4daa797ed6e38ed64bf6a1f0100000000000000008381612af857612af7613d37565b5b0492506040810190505b6d04ee2d6d415b85acef81000000008310612b3f576d04ee2d6d415b85acef81000000008381612b3557612b34613d37565b5b0492506020810190505b662386f26fc100008310612b6e57662386f26fc100008381612b6457612b63613d37565b5b0492506010810190505b6305f5e1008310612b97576305f5e1008381612b8d57612b8c613d37565b5b0492506008810190505b6127108310612bbc576127108381612bb257612bb1613d37565b5b0492506004810190505b60648310612bdf5760648381612bd557612bd4613d37565b5b0492506002810190505b600a8310612bee576001810190505b80915050919050565b6040518060c0016040528060008152602001600073ffffffffffffffffffffffffffffffffffffffff1681526020016060815260200160008152602001600015158152602001600081525090565b6000604051905090565b600080fd5b600080fd5b60007fffffffff0000000000000000000000000000000000000000000000000000000082169050919050565b612c8e81612c59565b8114612c9957600080fd5b50565b600081359050612cab81612c85565b92915050565b600060208284031215612cc757612cc6612c4f565b5b6000612cd584828501612c9c565b91505092915050565b60008115159050919050565b612cf381612cde565b82525050565b6000602082019050612d0e6000830184612cea565b92915050565b600081519050919050565b600082825260208201905092915050565b60005b83811015612d4e578082015181840152602081019050612d33565b60008484015250505050565b6000601f19601f8301169050919050565b6000612d7682612d14565b612d808185612d1f565b9350612d90818560208601612d30565b612d9981612d5a565b840191505092915050565b60006020820190508181036000830152612dbe8184612d6b565b905092915050565b6000819050919050565b612dd981612dc6565b8114612de457600080fd5b50565b600081359050612df681612dd0565b92915050565b600060208284031215612e1257612e11612c4f565b5b6000612e2084828501612de7565b91505092915050565b600073ffffffffffffffffffffffffffffffffffffffff82169050919050565b6000612e5482612e29565b9050919050565b612e6481612e49565b82525050565b6000602082019050612e7f6000830184612e5b565b92915050565b612e8e81612e49565b8114612e9957600080fd5b50565b600081359050612eab81612e85565b92915050565b60008060408385031215612ec857612ec7612c4f565b5b6000612ed685828601612e9c565b9250506020612ee785828601612de7565b9150509250929050565b600080600060608486031215612f0a57612f09612c4f565b5b6000612f1886828701612e9c565b9350506020612f2986828701612e9c565b9250506040612f3a86828701612de7565b9150509250925092565b600060208284031215612f5a57612f59612c4f565b5b6000612f6884828501612e9c565b91505092915050565b600081519050919050565b600082825260208201905092915050565b6000819050602082019050919050565b612fa681612dc6565b82525050565b612fb581612e49565b82525050565b600082825260208201905092915050565b6000612fd782612d14565b612fe18185612fbb565b9350612ff1818560208601612d30565b612ffa81612d5a565b840191505092915050565b61300e81612cde565b82525050565b600060c08301600083015161302c6000860182612f9d565b50602083015161303f6020860182612fac565b50604083015184820360408601526130578282612fcc565b915050606083015161306c6060860182612f9d565b50608083015161307f6080860182613005565b5060a083015161309260a0860182612f9d565b508091505092915050565b60006130a98383613014565b905092915050565b6000602082019050919050565b60006130c982612f71565b6130d38185612f7c565b9350836020820285016130e585612f8d565b8060005b858110156131215784840389528151613102858261309d565b945061310d836130b1565b925060208a019950506001810190506130e9565b50829750879550505050505092915050565b6000602082019050818103600083015261314d81846130be565b905092915050565b61315e81612dc6565b82525050565b60006020820190506131796000830184613155565b92915050565b600080fd5b600080fd5b7f4e487b7100000000000000000000000000000000000000000000000000000000600052604160045260246000fd5b6131c182612d5a565b810181811067ffffffffffffffff821117156131e0576131df613189565b5b80604052505050565b60006131f3612c45565b90506131ff82826131b8565b919050565b600067ffffffffffffffff82111561321f5761321e613189565b5b61322882612d5a565b9050602081019050919050565b82818337600083830152505050565b600061325761325284613204565b6131e9565b90508281526020810184848401111561327357613272613184565b5b61327e848285613235565b509392505050565b600082601f83011261329b5761329a61317f565b5b81356132ab848260208601613244565b91505092915050565b600080604083850312156132cb576132ca612c4f565b5b600083013567ffffffffffffffff8111156132e9576132e8612c54565b5b6132f585828601613286565b925050602061330685828601612de7565b9150509250929050565b61331981612cde565b811461332457600080fd5b50565b60008135905061333681613310565b92915050565b6000806040838503121561335357613352612c4f565b5b600061336185828601612e9c565b925050602061337285828601613327565b9150509250929050565b600067ffffffffffffffff82111561339757613396613189565b5b6133a082612d5a565b9050602081019050919050565b60006133c06133bb8461337c565b6131e9565b9050828152602081018484840111156133dc576133db613184565b5b6133e7848285613235565b509392505050565b600082601f8301126134045761340361317f565b5b81356134148482602086016133ad565b91505092915050565b6000806000806080858703121561343757613436612c4f565b5b600061344587828801612e9c565b945050602061345687828801612e9c565b935050604061346787828801612de7565b925050606085013567ffffffffffffffff81111561348857613487612c54565b5b613494878288016133ef565b91505092959194509250565b600060c0820190506134b56000830189613155565b6134c26020830188612e5b565b81810360408301526134d48187612d6b565b90506134e36060830186613155565b6134f06080830185612cea565b6134fd60a0830184613155565b979650505050505050565b6000806040838503121561351f5761351e612c4f565b5b600061352d85828601612de7565b925050602061353e85828601612de7565b9150509250929050565b6000806040838503121561355f5761355e612c4f565b5b600061356d85828601612e9c565b925050602061357e85828601612e9c565b9150509250929050565b7f4e487b7100000000000000000000000000000000000000000000000000000000600052602260045260246000fd5b600060028204905060018216806135cf57607f821691505b6020821081036135e2576135e1613588565b5b50919050565b7f4e6f7420666f722073616c650000000000000000000000000000000000000000600082015250565b600061361e600c83612d1f565b9150613629826135e8565b602082019050919050565b6000602082019050818103600083015261364d81613611565b9050919050565b7f496e73756666696369656e74207061796d656e74000000000000000000000000600082015250565b600061368a601483612d1f565b915061369582613654565b602082019050919050565b600060208201905081810360008301526136b98161367d565b9050919050565b7f596f7520616c7265616479206f776e2074686973206173736574000000000000600082015250565b60006136f6601a83612d1f565b9150613701826136c0565b602082019050919050565b60006020820190508181036000830152613725816136e9565b9050919050565b60006060820190506137416000830186612e5b565b61374e6020830185613155565b61375b6040830184612e5b565b949350505050565b7f4e487b7100000000000000000000000000000000000000000000000000000000600052601160045260246000fd5b600061379d82612dc6565b91507fffffffffffffffffffffffffffffffffffffffffffffffffffffffffffffffff82036137cf576137ce613763565b5b600182019050919050565b7f4e487b7100000000000000000000000000000000000000000000000000000000600052603260045260246000fd5b7f4e6f7420746865206f776e657200000000000000000000000000000000000000600082015250565b600061383f600d83612d1f565b915061384a82613809565b602082019050919050565b6000602082019050818103600083015261386e81613832565b9050919050565b7f4173736574206973206e6f74206c697374656420666f722073616c6500000000600082015250565b60006138ab601c83612d1f565b91506138b682613875565b602082019050919050565b600060208201905081810360008301526138da8161389e565b9050919050565b60008190508160005260206000209050919050565b60006020601f8301049050919050565b600082821b905092915050565b6000600883026139437fffffffffffffffffffffffffffffffffffffffffffffffffffffffffffffffff82613906565b61394d8683613906565b95508019841693508086168417925050509392505050565b6000819050919050565b600061398a61398561398084612dc6565b613965565b612dc6565b9050919050565b6000819050919050565b6139a48361396f565b6139b86139b082613991565b848454613913565b825550505050565b600090565b6139cd6139c0565b6139d881848461399b565b505050565b5b818110156139fc576139f16000826139c5565b6001810190506139de565b5050565b601f821115613a4157613a12816138e1565b613a1b846138f6565b81016020851015613a2a578190505b613a3e613a36856138f6565b8301826139dd565b50505b505050565b600082821c905092915050565b6000613a6460001984600802613a46565b1980831691505092915050565b6000613a7d8383613a53565b9150826002028217905092915050565b613a9682612d14565b67ffffffffffffffff811115613aaf57613aae613189565b5b613ab982546135b7565b613ac4828285613a00565b600060209050601f831160018114613af75760008415613ae5578287015190505b613aef8582613a71565b865550613b57565b601f198416613b05866138e1565b60005b82811015613b2d57848901518255600182019150602085019450602081019050613b08565b86831015613b4a5784890151613b46601f891682613a53565b8355505b6001600288020188555050505b505050505050565b600081905092915050565b6000613b7582612d14565b613b7f8185613b5f565b9350613b8f818560208601612d30565b80840191505092915050565b6000613ba78285613b6a565b9150613bb38284613b6a565b91508190509392505050565b7f5072696365206d7573742062652067726561746572207468616e203000000000600082015250565b6000613bf5601c83612d1f565b9150613c0082613bbf565b602082019050919050565b60006020820190508181036000830152613c2481613be8565b9050919050565b600081519050919050565b600082825260208201905092915050565b6000613c5282613c2b565b613c5c8185613c36565b9350613c6c818560208601612d30565b613c7581612d5a565b840191505092915050565b6000608082019050613c956000830187612e5b565b613ca26020830186612e5b565b613caf6040830185613155565b8181036060830152613cc18184613c47565b905095945050505050565b600081519050613cdb81612c85565b92915050565b600060208284031215613cf757613cf6612c4f565b5b6000613d0584828501613ccc565b91505092915050565b6000604082019050613d236000830185612e5b565b613d306020830184613155565b9392505050565b7f4e487b7100000000000000000000000000000000000000000000000000000000600052601260045260246000fdfea26469706673582212200b44f84c1139e7f87599247805f7df9f910baa39d91f91b62081a94eb440a74864736f6c634300081c0033",
  "linkReferences": {},
  "deployedLinkReferences": {}
}