{
  "_format": "hh-sol-artifact-1",
  "contractName": "RealEstateToken",
  "sourceName": "contracts/RealEstateToken.sol",
  "abi": [
    {
      "inputs": [],
      "stateMutability": "nonpayable",
      "type": "constructor"
    },
    {
      "inputs": [
        {
          "internalType": "address",
          "name": "sender",
          "type": "address"
        },
        {
          "internalType": "uint256",
          "name": "tokenId",
          "type": "uint256"
        },
        {
          "internalType": "address",
          "name": "owner",
          "type": "address"
        }
      ],
      "name": "ERC721IncorrectOwner",
      "type": "error"
    },
    {
      "inputs": [
        {
          "internalType": "address",
          "name": "operator",
          "type": "address"
        },
        {
          "internalType": "uint256",
          "name": "tokenId",
          "type": "uint256"
        }
      ],
      "name": "ERC721InsufficientApproval",
      "type": "error"
    },
    {
      "inputs": [
        {
          "internalType": "address",
          "name": "approver",
          "type": "address"
        }
      ],
      "name": "ERC721InvalidApprover",
      "type": "error"
    },
    {
      "inputs": [
        {
          "internalType": "address",
          "name": "operator",
          "type": "address"
        }
      ],
      "name": "ERC721InvalidOperator",
      "type": "error"
    },
    {
      "inputs": [
        {
          "internalType": "address",
          "name": "owner",
          "type": "address"
        }
      ],
      "name": "ERC721InvalidOwner",
      "type": "error"
    },
    {
      "inputs": [
        {
          "internalType": "address",
          "name": "receiver",
          "type": "address"
        }
      ],
      "name": "ERC721InvalidReceiver",
      "type": "error"
    },
    {
      "inputs": [
        {
          "internalType": "address",
          "name": "sender",
          "type": "address"
        }
      ],
      "name": "ERC721InvalidSender",
      "type": "error"
    },
    {
      "inputs": [
        {
          "internalType": "uint256",
          "name": "tokenId",
          "type": "uint256"
        }
      ],
      "name": "ERC721NonexistentToken",
      "type": "error"
    },
    {
      "inputs": [
        {
          "internalType": "address",
          "name": "owner",
          "type": "address"
        }
      ],
      "name": "OwnableInvalidOwner",
      "type": "error"
    },
    {
      "inputs": [
        {
          "internalType": "address",
          "name": "account",
          "type": "address"
        }
      ],
      "name": "OwnableUnauthorizedAccount",
      "type": "error"
    },
    {
      "anonymous": false,
      "inputs": [
        {
          "indexed": true,
          "internalType": "address",
          "name": "owner",
          "type": "address"
        },
        {
          "indexed": true,
          "internalType": "address",
          "name": "approved",
          "type": "address"
        },
        {
          "indexed": true,
          "internalType": "uint256",
          "name": "tokenId",
          "type": "uint256"
        }
      ],
      "name": "Approval",
      "type": "event"
    },
    {
      "anonymous": false,
      "inputs": [
        {
          "indexed": true,
          "internalType": "address",
          "name": "owner",
          "type": "address"
        },
        {
          "indexed": true,
          "internalType": "address",
          "name": "operator",
          "type": "address"
        },
        {
          "indexed": false,
          "internalType": "bool",
          "name": "approved",
          "type": "bool"
        }
      ],
      "name": "ApprovalForAll",
      "type": "event"
    },
    {
      "anonymous": false,
      "inputs": [
        {
          "indexed": false,
          "internalType": "uint256",
          "name": "_fromTokenId",
          "type": "uint256"
        },
        {
          "indexed": false,
          "internalType": "uint256",
          "name": "_toTokenId",
          "type": "uint256"
        }
      ],
      "name": "BatchMetadataUpdate",
      "type": "event"
    },
    {
      "anonymous": false,
      "inputs": [
        {
          "indexed": false,
          "internalType": "uint256",
          "name": "_tokenId",
          "type": "uint256"
        }
      ],
      "name": "MetadataUpdate",
      "type": "event"
    },
    {
      "anonymous": false,
      "inputs": [
        {
          "indexed": true,
          "internalType": "address",
          "name": "previousOwner",
          "type": "address"
        },
        {
          "indexed": true,
          "internalType": "address",
          "name": "newOwner",
          "type": "address"
        }
      ],
      "name": "OwnershipTransferred",
      "type": "event"
    },
    {
      "anonymous": false,
      "inputs": [
        {
          "indexed": true,
          "internalType": "address",
          "name": "from",
          "type": "address"
        },
        {
          "indexed": true,
          "internalType": "address",
          "name": "to",
          "type": "address"
        },
        {
          "indexed": true,
          "internalType": "uint256",
          "name": "tokenId",
          "type": "uint256"
        }
      ],
      "name": "Transfer",
      "type": "event"
    },
    {
      "inputs": [
        {
          "internalType": "address",
          "name": "to",
          "type": "address"
        },
        {
          "internalType": "uint256",
          "name": "tokenId",
          "type": "uint256"
        }
      ],
      "name": "approve",
      "outputs": [],
      "stateMutability": "nonpayable",
      "type": "function"
    },
    {
      "inputs": [
        {
          "internalType": "uint256",
          "name": "",
          "type": "uint256"
        }
      ],
      "name": "assets",
      "outputs": [
        {
          "internalType": "uint256",
          "name": "tokenId",
          "type": "uint256"
        },
        {
          "internalType": "address",
          "name": "owner",
          "type": "address"
        },
        {
          "internalType": "string",
          "name": "tokenURI",
          "type": "string"
        },
        {
          "internalType": "uint256",
          "name": "valuation",
          "type": "uint256"
        },
        {
          "internalType": "bool",
          "name": "forSale",
          "type": "bool"
        },
        {
          "internalType": "uint256",
          "name": "price",
          "type": "uint256"
        }
      ],
      "stateMutability": "view",
      "type": "function"
    },
    {
      "inputs": [
        {
          "internalType": "address",
          "name": "owner",
          "type": "address"
        }
      ],
      "name": "balanceOf",
      "outputs": [
        {
          "internalType": "uint256",
          "name": "",
          "type": "uint256"
        }
      ],
      "stateMutability": "view",
      "type": "function"
    },
    {
      "inputs": [
        {
          "internalType": "uint256",
          "name": "_tokenId",
          "type": "uint256"
        }
      ],
      "name": "buyAsset",
      "outputs": [],
      "stateMutability": "payable",
      "type": "function"
    },
    {
      "inputs": [],
      "name": "getAllAssetsForSale",
      "outputs": [
        {
          "components": [
            {
              "internalType": "uint256",
              "name": "tokenId",
              "type": "uint256"
            },
            {
              "internalType": "address",
              "name": "owner",
              "type": "address"
            },
            {
              "internalType": "string",
              "name": "tokenURI",
              "type": "string"
            },
            {
              "internalType": "uint256",
              "name": "valuation",
              "type": "uint256"
            },
            {
              "internalType": "bool",
              "name": "forSale",
              "type": "bool"
            },
            {
              "internalType": "uint256",
              "name": "price",
              "type": "uint256"
            }
          ],
          "internalType": "struct RealEstateToken.Asset[]",
          "name": "",
          "type": "tuple[]"
        }
      ],
      "stateMutability": "view",
      "type": "function"
    },
    {
      "inputs": [
        {
          "internalType": "uint256",
          "name": "tokenId",
          "type": "uint256"
        }
      ],
      "name": "getApproved",
      "outputs": [
        {
          "internalType": "address",
          "name": "",
          "type": "address"
        }
      ],
      "stateMutability": "view",
      "type": "function"
    },
    {
      "inputs": [
        {
          "internalType": "address",
          "name": "_owner",
          "type": "address"
        }
      ],
      "name": "getAssetsByOwner",
      "outputs": [
        {
          "components": [
            {
              "internalType": "uint256",
              "name": "tokenId",
              "type": "uint256"
            },
            {
              "internalType": "address",
              "name": "owner",
              "type": "address"
            },
            {
              "internalType": "string",
              "name": "tokenURI",
              "type": "string"
            },
            {
              "internalType": "uint256",
              "name": "valuation",
              "type": "uint256"
            },
            {
              "internalType": "bool",
              "name": "forSale",
              "type": "bool"
            },
            {
              "internalType": "uint256",
              "name": "price",
              "type": "uint256"
            }
          ],
          "internalType": "struct RealEstateToken.Asset[]",
          "name": "",
          "type": "tuple[]"
        }
      ],
      "stateMutability": "view",
      "type": "function"
    },
    {
      "inputs": [
        {
          "internalType": "address",
          "name": "owner",
          "type": "address"
        },
        {
          "internalType": "address",
          "name": "operator",
          "type": "address"
        }
      ],
      "name": "isApprovedForAll",
      "outputs": [
        {
          "internalType": "bool",
          "name": "",
          "type": "bool"
        }
      ],
      "stateMutability": "view",
      "type": "function"
    },
    {
      "inputs": [
        {
          "internalType": "uint256",
          "name": "_tokenId",
          "type": "uint256"
        },
        {
          "internalType": "uint256",
          "name": "_price",
          "type": "uint256"
        }
      ],
      "name": "listForSale",
      "outputs": [],
      "stateMutability": "nonpayable",
      "type": "function"
    },
    {
      "inputs": [
        {
          "internalType": "string",
          "name": "_tokenURI",
          "type": "string"
        },
        {
          "internalType": "uint256",
          "name": "_valuation",
          "type": "uint256"
        }
      ],
      "name": "mintAsset",
      "outputs": [],
      "stateMutability": "nonpayable",
      "type": "function"
    },
    {
      "inputs": [],
      "name": "name",
      "outputs": [
        {
          "internalType": "string",
          "name": "",
          "type": "string"
        }
      ],
      "stateMutability": "view",
      "type": "function"
    },
    {
      "inputs": [],
      "name": "nextTokenId",
      "outputs": [
        {
          "internalType": "uint256",
          "name": "",
          "type": "uint256"
        }
      ],
      "stateMutability": "view",
      "type": "function"
    },
    {
      "inputs": [],
      "name": "owner",
      "outputs": [
        {
          "internalType": "address",
          "name": "",
          "type": "address"
        }
      ],
      "stateMutability": "view",
      "type": "function"
    },
    {
      "inputs": [
        {
          "internalType": "uint256",
          "name": "tokenId",
          "type": "uint256"
        }
      ],
      "name": "ownerOf",
      "outputs": [
        {
          "internalType": "address",
          "name": "",
          "type": "address"
        }
      ],
      "stateMutability": "view",
      "type": "function"
    },
    {
      "inputs": [],
      "name": "renounceOwnership",
      "outputs": [],
      "stateMutability": "nonpayable",
      "type": "function"
    },
    {
      "inputs": [
        {
          "internalType": "address",
          "name": "from",
          "type": "address"
        },
        {
          "internalType": "address",
          "name": "to",
          "type": "address"
        },
        {
          "internalType": "uint256",
          "name": "tokenId",
          "type": "uint256"
        }
      ],
      "name": "safeTransferFrom",
      "outputs": [],
      "stateMutability": "nonpayable",
      "type": "function"
    },
    {
      "inputs": [
        {
          "internalType": "address",
          "name": "from",
          "type": "address"
        },
        {
          "internalType": "address",
          "name": "to",
          "type": "address"
        },
        {
          "internalType": "uint256",
          "name": "tokenId",
          "type": "uint256"
        },
        {
          "internalType": "bytes",
          "name": "data",
          "type": "bytes"
        }
      ],
      "name": "safeTransferFrom",
      "outputs": [],
      "stateMutability": "nonpayable",
      "type": "function"
    },
    {
      "inputs": [
        {
          "internalType": "address",
          "name": "operator",
          "type": "address"
        },
        {
          "internalType": "bool",
          "name": "approved",
          "type": "bool"
        }
      ],
      "name": "setApprovalForAll",
      "outputs": [],
      "stateMutability": "nonpayable",
      "type": "function"
    },
    {
      "inputs": [
        {
          "internalType": "bytes4",
          "name": "interfaceId",
          "type": "bytes4"
        }
      ],
      "name": "supportsInterface",
      "outputs": [
        {
          "internalType": "bool",
          "name": "",
          "type": "bool"
        }
      ],
      "stateMutability": "view",
      "type": "function"
    },
    {
      "inputs": [],
      "name": "symbol",
      "outputs": [
        {
          "internalType": "string",
          "name": "",
          "type": "string"
        }
      ],
      "stateMutability": "view",
      "type": "function"
    },
    {
      "inputs": [
        {
          "internalType": "uint256",
          "name": "tokenId",
          "type": "uint256"
        }
      ],
      "name": "tokenURI",
      "outputs": [
        {
          "internalType": "string",
          "name": "",
          "type": "string"
        }
      ],
      "stateMutability": "view",
      "type": "function"
    },
    {
      "inputs": [
        {
          "internalType": "address",
          "name": "_to",
          "type": "address"
        },
        {
          "internalType": "uint256",
          "name": "_tokenId",
          "type": "uint256"
        }
      ],
      "name": "transferAsset",
      "outputs": [],
      "stateMutability": "nonpayable",
      "type": "function"
    },
    {
      "inputs": [
        {
          "internalType": "address",
          "name": "from",
          "type": "address"
        },
        {
          "internalType": "address",
          "name": "to",
          "type": "address"
        },
        {
          "internalType": "uint256",
          "name": "tokenId",
          "type": "uint256"
        }
      ],
      "name": "transferFrom",
      "outputs": [],
      "stateMutability": "nonpayable",
      "type": "function"
    },
    {
      "inputs": [
        {
          "internalType": "address",
          "name": "newOwner",
          "type": "address"
        }
      ],
      "name": "transferOwnership",
      "outputs": [],
      "stateMutability": "nonpayable",
      "type": "function"
    }
  ],
  "bytecode": "0x608060405234801561001057600080fd5b50336040518060400160405280600f81526020017f5265616c457374617465546f6b656e00000000000000000000000000000000008152506040518060400160405280600381526020017f5245540000000000000000000000000000000000000000000000000000000000815250816000908161008d919061043d565b50806001908161009d919061043d565b505050600073ffffffffffffffffffffffffffffffffffffffff168173ffffffffffffffffffffffffffffffffffffffff16036101125760006040517f1e4fbdf70000000000000000000000000000000000000000000000000000000081526004016101099190610550565b60405180910390fd5b6101218161012760201b60201c565b5061056b565b6000600760009054906101000a900473ffffffffffffffffffffffffffffffffffffffff16905081600760006101000a81548173ffffffffffffffffffffffffffffffffffffffff021916908373ffffffffffffffffffffffffffffffffffffffff1602179055508173ffffffffffffffffffffffffffffffffffffffff168173ffffffffffffffffffffffffffffffffffffffff167f8be0079c531659141344cd1fd0a4f28419497f9722a3daafe3b4186f6b6457e060405160405180910390a35050565b600081519050919050565b7f4e487b7100000000000000000000000000000000000000000000000000000000600052604160045260246000fd5b7f4e487b7100000000000000000000000000000000000000000000000000000000600052602260045260246000fd5b6000600282049050600182168061026e57607f821691505b60208210810361028157610280610227565b5b50919050565b60008190508160005260206000209050919050565b60006020601f8301049050919050565b600082821b905092915050565b6000600883026102e97fffffffffffffffffffffffffffffffffffffffffffffffffffffffffffffffff826102ac565b6102f386836102ac565b95508019841693508086168417925050509392505050565b6000819050919050565b6000819050919050565b600061033a6103356103308461030b565b610315565b61030b565b9050919050565b6000819050919050565b6103548361031f565b61036861036082610341565b8484546102b9565b825550505050565b600090565b61037d610370565b61038881848461034b565b505050565b5b818110156103ac576103a1600082610375565b60018101905061038e565b5050565b601f8211156103f1576103c281610287565b6103cb8461029c565b810160208510156103da578190505b6103ee6103e68561029c565b83018261038d565b50505b505050565b600082821c905092915050565b6000610414600019846008026103f6565b1980831691505092915050565b600061042d8383610403565b9150826002028217905092915050565b610446826101ed565b67ffffffffffffffff81111561045f5761045e6101f8565b5b6104698254610256565b6104748282856103b0565b600060209050601f8311600181146104a75760008415610495578287015190505b61049f8582610421565b865550610507565b601f1984166104b586610287565b60005b828110156104dd578489015182556001820191506020850194506020810190506104b8565b868310156104fa57848901516104f6601f891682610403565b8355505b6001600288020188555050505b505050505050565b600073ffffffffffffffffffffffffffffffffffffffff82169050919050565b600061053a8261050f565b9050919050565b61054a8161052f565b82525050565b60006020820190506105656000830184610541565b92915050565b613bbe8061057a6000396000f3fe60806040526004361061014b5760003560e01c8063715018a6116100b6578063b88d4fde1161006f578063b88d4fde14610481578063c87b56dd146104aa578063cf35bdd0146104e7578063e80d7fec14610529578063e985e9c514610552578063f2fde38b1461058f5761014b565b8063715018a61461039757806375794a3c146103ae5780638da5cb5b146103d957806395d89b41146104045780639776a6431461042f578063a22cb465146104585761014b565b8063276f093411610108578063276f0934146102635780632bedc4e2146102a057806342842e0e146102cb5780635c921eb9146102f45780636352211e1461031d57806370a082311461035a5761014b565b806301ffc9a71461015057806306fdde031461018d578063081812fc146101b8578063095ea7b3146101f5578063110d35b81461021e57806323b872dd1461023a575b600080fd5b34801561015c57600080fd5b5061017760048036038101906101729190612b3f565b6105b8565b6040516101849190612b87565b60405180910390f35b34801561019957600080fd5b506101a2610619565b6040516101af9190612c32565b60405180910390f35b3480156101c457600080fd5b506101df60048036038101906101da9190612c8a565b6106ab565b6040516101ec9190612cf8565b60405180910390f35b34801561020157600080fd5b5061021c60048036038101906102179190612d3f565b6106c7565b005b61023860048036038101906102339190612c8a565b6106dd565b005b34801561024657600080fd5b50610261600480360381019061025c9190612d7f565b610a1f565b005b34801561026f57600080fd5b5061028a60048036038101906102859190612dd2565b610b21565b6040516102979190612fc1565b60405180910390f35b3480156102ac57600080fd5b506102b5610e0f565b6040516102c29190612fc1565b60405180910390f35b3480156102d757600080fd5b506102f260048036038101906102ed9190612d7f565b61107b565b005b34801561030057600080fd5b5061031b60048036038101906103169190612d3f565b61109b565b005b34801561032957600080fd5b50610344600480360381019061033f9190612c8a565b611175565b6040516103519190612cf8565b60405180910390f35b34801561036657600080fd5b50610381600480360381019061037c9190612dd2565b611187565b60405161038e9190612ff2565b60405180910390f35b3480156103a357600080fd5b506103ac611241565b005b3480156103ba57600080fd5b506103c3611255565b6040516103d09190612ff2565b60405180910390f35b3480156103e557600080fd5b506103ee61125b565b6040516103fb9190612cf8565b60405180910390f35b34801561041057600080fd5b50610419611285565b6040516104269190612c32565b60405180910390f35b34801561043b57600080fd5b5061045660048036038101906104519190613142565b611317565b005b34801561046457600080fd5b5061047f600480360381019061047a91906131ca565b611447565b005b34801561048d57600080fd5b506104a860048036038101906104a391906132ab565b61145d565b005b3480156104b657600080fd5b506104d160048036038101906104cc9190612c8a565b611482565b6040516104de9190612c32565b60405180910390f35b3480156104f357600080fd5b5061050e60048036038101906105099190612c8a565b611595565b6040516105209695949392919061332e565b60405180910390f35b34801561053557600080fd5b50610550600480360381019061054b9190613396565b611686565b005b34801561055e57600080fd5b50610579600480360381019061057491906133d6565b61178d565b6040516105869190612b87565b60405180910390f35b34801561059b57600080fd5b506105b660048036038101906105b19190612dd2565b611821565b005b6000634906490660e01b7bffffffffffffffffffffffffffffffffffffffffffffffffffffffff1916827bffffffffffffffffffffffffffffffffffffffffffffffffffffffff191614806106125750610611826118a7565b5b9050919050565b60606000805461062890613445565b80601f016020809104026020016040519081016040528092919081815260200182805461065490613445565b80156106a15780601f10610676576101008083540402835291602001916106a1565b820191906000526020600020905b81548152906001019060200180831161068457829003601f168201915b5050505050905090565b60006106b682611989565b506106c082611a11565b9050919050565b6106d982826106d4611a4e565b611a56565b5050565b6000600960008381526020019081526020016000206040518060c0016040529081600082015481526020016001820160009054906101000a900473ffffffffffffffffffffffffffffffffffffffff1673ffffffffffffffffffffffffffffffffffffffff1673ffffffffffffffffffffffffffffffffffffffff16815260200160028201805461076d90613445565b80601f016020809104026020016040519081016040528092919081815260200182805461079990613445565b80156107e65780601f106107bb576101008083540402835291602001916107e6565b820191906000526020600020905b8154815290600101906020018083116107c957829003601f168201915b50505050508152602001600382015481526020016004820160009054906101000a900460ff1615151515815260200160058201548152505090508060800151610864576040517f08c379a000000000000000000000000000000000000000000000000000000000815260040161085b906134c2565b60405180910390fd5b8060a001513410156108ab576040517f08c379a00000000000000000000000000000000000000000000000000000000081526004016108a29061352e565b60405180910390fd5b806020015173ffffffffffffffffffffffffffffffffffffffff163373ffffffffffffffffffffffffffffffffffffffff160361091d576040517f08c379a00000000000000000000000000000000000000000000000000000000081526004016109149061359a565b60405180910390fd5b806020015173ffffffffffffffffffffffffffffffffffffffff166108fc8260a001519081150290604051600060405180830381858888f1935050505015801561096b573d6000803e3d6000fd5b5061097b81602001513384611a68565b336009600084815260200190815260200160002060010160006101000a81548173ffffffffffffffffffffffffffffffffffffffff021916908373ffffffffffffffffffffffffffffffffffffffff16021790555060006009600084815260200190815260200160002060040160006101000a81548160ff021916908315150217905550600060096000848152602001908152602001600020600501819055505050565b600073ffffffffffffffffffffffffffffffffffffffff168273ffffffffffffffffffffffffffffffffffffffff1603610a915760006040517f64a0ae92000000000000000000000000000000000000000000000000000000008152600401610a889190612cf8565b60405180910390fd5b6000610aa58383610aa0611a4e565b611bd5565b90508373ffffffffffffffffffffffffffffffffffffffff168173ffffffffffffffffffffffffffffffffffffffff1614610b1b578382826040517f64283d7b000000000000000000000000000000000000000000000000000000008152600401610b12939291906135ba565b60405180910390fd5b50505050565b6060600060085490506000805b82811015610bbb578473ffffffffffffffffffffffffffffffffffffffff166009600083815260200190815260200160002060010160009054906101000a900473ffffffffffffffffffffffffffffffffffffffff1673ffffffffffffffffffffffffffffffffffffffff1603610bae578180610baa90613620565b9250505b8080600101915050610b2e565b5060008167ffffffffffffffff811115610bd857610bd7613017565b5b604051908082528060200260200182016040528015610c1157816020015b610bfe612a85565b815260200190600190039081610bf65790505b5090506000805b84811015610e02578673ffffffffffffffffffffffffffffffffffffffff166009600083815260200190815260200160002060010160009054906101000a900473ffffffffffffffffffffffffffffffffffffffff1673ffffffffffffffffffffffffffffffffffffffff1603610df557600960008281526020019081526020016000206040518060c0016040529081600082015481526020016001820160009054906101000a900473ffffffffffffffffffffffffffffffffffffffff1673ffffffffffffffffffffffffffffffffffffffff1673ffffffffffffffffffffffffffffffffffffffff168152602001600282018054610d1790613445565b80601f0160208091040260200160405190810160405280929190818152602001828054610d4390613445565b8015610d905780601f10610d6557610100808354040283529160200191610d90565b820191906000526020600020905b815481529060010190602001808311610d7357829003601f168201915b50505050508152602001600382015481526020016004820160009054906101000a900460ff16151515158152602001600582015481525050838381518110610ddb57610dda613668565b5b60200260200101819052508180610df190613620565b9250505b8080600101915050610c18565b5081945050505050919050565b6060600060085490506000805b82811015610e69576009600082815260200190815260200160002060040160009054906101000a900460ff1615610e5c578180610e5890613620565b9250505b8080600101915050610e1c565b5060008167ffffffffffffffff811115610e8657610e85613017565b5b604051908082528060200260200182016040528015610ebf57816020015b610eac612a85565b815260200190600190039081610ea45790505b5090506000805b84811015611070576009600082815260200190815260200160002060040160009054906101000a900460ff161561106357600960008281526020019081526020016000206040518060c0016040529081600082015481526020016001820160009054906101000a900473ffffffffffffffffffffffffffffffffffffffff1673ffffffffffffffffffffffffffffffffffffffff1673ffffffffffffffffffffffffffffffffffffffff168152602001600282018054610f8590613445565b80601f0160208091040260200160405190810160405280929190818152602001828054610fb190613445565b8015610ffe5780601f10610fd357610100808354040283529160200191610ffe565b820191906000526020600020905b815481529060010190602001808311610fe157829003601f168201915b50505050508152602001600382015481526020016004820160009054906101000a900460ff1615151515815260200160058201548152505083838151811061104957611048613668565b5b6020026020010181905250818061105f90613620565b9250505b8080600101915050610ec6565b508194505050505090565b6110968383836040518060200160405280600081525061145d565b505050565b3373ffffffffffffffffffffffffffffffffffffffff166110bb82611175565b73ffffffffffffffffffffffffffffffffffffffff1614611111576040517f08c379a0000000000000000000000000000000000000000000000000000000008152600401611108906136e3565b60405180910390fd5b61111c338383611a68565b816009600083815260200190815260200160002060010160006101000a81548173ffffffffffffffffffffffffffffffffffffffff021916908373ffffffffffffffffffffffffffffffffffffffff1602179055505050565b600061118082611989565b9050919050565b60008073ffffffffffffffffffffffffffffffffffffffff168273ffffffffffffffffffffffffffffffffffffffff16036111fa5760006040517f89c62b640000000000000000000000000000000000000000000000000000000081526004016111f19190612cf8565b60405180910390fd5b600360008373ffffffffffffffffffffffffffffffffffffffff1673ffffffffffffffffffffffffffffffffffffffff168152602001908152602001600020549050919050565b611249611def565b6112536000611e76565b565b60085481565b6000600760009054906101000a900473ffffffffffffffffffffffffffffffffffffffff16905090565b60606001805461129490613445565b80601f01602080910402602001604051908101604052809291908181526020018280546112c090613445565b801561130d5780601f106112e25761010080835404028352916020019161130d565b820191906000526020600020905b8154815290600101906020018083116112f057829003601f168201915b5050505050905090565b600060085490506113283382611f3c565b6113328184611f5a565b6040518060c001604052808281526020013373ffffffffffffffffffffffffffffffffffffffff1681526020018481526020018381526020016000151581526020016000815250600960008381526020019081526020016000206000820151816000015560208201518160010160006101000a81548173ffffffffffffffffffffffffffffffffffffffff021916908373ffffffffffffffffffffffffffffffffffffffff16021790555060408201518160020190816113f291906138af565b506060820151816003015560808201518160040160006101000a81548160ff02191690831515021790555060a082015181600501559050506008600081548092919061143d90613620565b9190505550505050565b611459611452611a4e565b8383611fb6565b5050565b611468848484610a1f565b61147c611473611a4e565b85858585612125565b50505050565b606061148d82611989565b5060006006600084815260200190815260200160002080546114ae90613445565b80601f01602080910402602001604051908101604052809291908181526020018280546114da90613445565b80156115275780601f106114fc57610100808354040283529160200191611527565b820191906000526020600020905b81548152906001019060200180831161150a57829003601f168201915b5050505050905060006115386122d6565b9050600081510361154d578192505050611590565b60008251111561158257808260405160200161156a9291906139bd565b60405160208183030381529060405292505050611590565b61158b846122ed565b925050505b919050565b60096020528060005260406000206000915090508060000154908060010160009054906101000a900473ffffffffffffffffffffffffffffffffffffffff16908060020180546115e490613445565b80601f016020809104026020016040519081016040528092919081815260200182805461161090613445565b801561165d5780601f106116325761010080835404028352916020019161165d565b820191906000526020600020905b81548152906001019060200180831161164057829003601f168201915b5050505050908060030154908060040160009054906101000a900460ff16908060050154905086565b3373ffffffffffffffffffffffffffffffffffffffff166116a683611175565b73ffffffffffffffffffffffffffffffffffffffff16146116fc576040517f08c379a00000000000000000000000000000000000000000000000000000000081526004016116f3906136e3565b60405180910390fd5b6000811161173f576040517f08c379a000000000000000000000000000000000000000000000000000000000815260040161173690613a2d565b60405180910390fd5b60016009600084815260200190815260200160002060040160006101000a81548160ff0219169083151502179055508060096000848152602001908152602001600020600501819055505050565b6000600560008473ffffffffffffffffffffffffffffffffffffffff1673ffffffffffffffffffffffffffffffffffffffff16815260200190815260200160002060008373ffffffffffffffffffffffffffffffffffffffff1673ffffffffffffffffffffffffffffffffffffffff16815260200190815260200160002060009054906101000a900460ff16905092915050565b611829611def565b600073ffffffffffffffffffffffffffffffffffffffff168173ffffffffffffffffffffffffffffffffffffffff160361189b5760006040517f1e4fbdf70000000000000000000000000000000000000000000000000000000081526004016118929190612cf8565b60405180910390fd5b6118a481611e76565b50565b60007f80ac58cd000000000000000000000000000000000000000000000000000000007bffffffffffffffffffffffffffffffffffffffffffffffffffffffff1916827bffffffffffffffffffffffffffffffffffffffffffffffffffffffff1916148061197257507f5b5e139f000000000000000000000000000000000000000000000000000000007bffffffffffffffffffffffffffffffffffffffffffffffffffffffff1916827bffffffffffffffffffffffffffffffffffffffffffffffffffffffff1916145b80611982575061198182612356565b5b9050919050565b600080611995836123c0565b9050600073ffffffffffffffffffffffffffffffffffffffff168173ffffffffffffffffffffffffffffffffffffffff1603611a0857826040517f7e2732890000000000000000000000000000000000000000000000000000000081526004016119ff9190612ff2565b60405180910390fd5b80915050919050565b60006004600083815260200190815260200160002060009054906101000a900473ffffffffffffffffffffffffffffffffffffffff169050919050565b600033905090565b611a6383838360016123fd565b505050565b600073ffffffffffffffffffffffffffffffffffffffff168273ffffffffffffffffffffffffffffffffffffffff1603611ada5760006040517f64a0ae92000000000000000000000000000000000000000000000000000000008152600401611ad19190612cf8565b60405180910390fd5b6000611ae883836000611bd5565b9050600073ffffffffffffffffffffffffffffffffffffffff168173ffffffffffffffffffffffffffffffffffffffff1603611b5b57816040517f7e273289000000000000000000000000000000000000000000000000000000008152600401611b529190612ff2565b60405180910390fd5b8373ffffffffffffffffffffffffffffffffffffffff168173ffffffffffffffffffffffffffffffffffffffff1614611bcf578382826040517f64283d7b000000000000000000000000000000000000000000000000000000008152600401611bc6939291906135ba565b60405180910390fd5b50505050565b600080611be1846123c0565b9050600073ffffffffffffffffffffffffffffffffffffffff168373ffffffffffffffffffffffffffffffffffffffff1614611c2357611c228184866125c2565b5b600073ffffffffffffffffffffffffffffffffffffffff168173ffffffffffffffffffffffffffffffffffffffff1614611cb457611c656000856000806123fd565b6001600360008373ffffffffffffffffffffffffffffffffffffffff1673ffffffffffffffffffffffffffffffffffffffff168152602001908152602001600020600082825403925050819055505b600073ffffffffffffffffffffffffffffffffffffffff168573ffffffffffffffffffffffffffffffffffffffff1614611d37576001600360008773ffffffffffffffffffffffffffffffffffffffff1673ffffffffffffffffffffffffffffffffffffffff168152602001908152602001600020600082825401925050819055505b846002600086815260200190815260200160002060006101000a81548173ffffffffffffffffffffffffffffffffffffffff021916908373ffffffffffffffffffffffffffffffffffffffff160217905550838573ffffffffffffffffffffffffffffffffffffffff168273ffffffffffffffffffffffffffffffffffffffff167fddf252ad1be2c89b69c2b068fc378daa952ba7f163c4a11628f55a4df523b3ef60405160405180910390a4809150509392505050565b611df7611a4e565b73ffffffffffffffffffffffffffffffffffffffff16611e1561125b565b73ffffffffffffffffffffffffffffffffffffffff1614611e7457611e38611a4e565b6040517f118cdaa7000000000000000000000000000000000000000000000000000000008152600401611e6b9190612cf8565b60405180910390fd5b565b6000600760009054906101000a900473ffffffffffffffffffffffffffffffffffffffff16905081600760006101000a81548173ffffffffffffffffffffffffffffffffffffffff021916908373ffffffffffffffffffffffffffffffffffffffff1602179055508173ffffffffffffffffffffffffffffffffffffffff168173ffffffffffffffffffffffffffffffffffffffff167f8be0079c531659141344cd1fd0a4f28419497f9722a3daafe3b4186f6b6457e060405160405180910390a35050565b611f56828260405180602001604052806000815250612686565b5050565b80600660008481526020019081526020016000209081611f7a91906138af565b507ff8e1a15aba9398e019f0b49df1a4fde98ee17ae345cb5f6b5e2c27f5033e8ce782604051611faa9190612ff2565b60405180910390a15050565b600073ffffffffffffffffffffffffffffffffffffffff168273ffffffffffffffffffffffffffffffffffffffff160361202757816040517f5b08ba1800000000000000000000000000000000000000000000000000000000815260040161201e9190612cf8565b60405180910390fd5b80600560008573ffffffffffffffffffffffffffffffffffffffff1673ffffffffffffffffffffffffffffffffffffffff16815260200190815260200160002060008473ffffffffffffffffffffffffffffffffffffffff1673ffffffffffffffffffffffffffffffffffffffff16815260200190815260200160002060006101000a81548160ff0219169083151502179055508173ffffffffffffffffffffffffffffffffffffffff168373ffffffffffffffffffffffffffffffffffffffff167f17307eab39ab6107e8899845ad3d59bd9653f200f220920489ca2b5937696c31836040516121189190612b87565b60405180910390a3505050565b60008373ffffffffffffffffffffffffffffffffffffffff163b11156122cf578273ffffffffffffffffffffffffffffffffffffffff1663150b7a02868685856040518563ffffffff1660e01b81526004016121849493929190613aa2565b6020604051808303816000875af19250505080156121c057506040513d601f19601f820116820180604052508101906121bd9190613b03565b60015b612244573d80600081146121f0576040519150601f19603f3d011682016040523d82523d6000602084013e6121f5565b606091505b50600081510361223c57836040517f64a0ae920000000000000000000000000000000000000000000000000000000081526004016122339190612cf8565b60405180910390fd5b805181602001fd5b63150b7a0260e01b7bffffffffffffffffffffffffffffffffffffffffffffffffffffffff1916817bffffffffffffffffffffffffffffffffffffffffffffffffffffffff1916146122cd57836040517f64a0ae920000000000000000000000000000000000000000000000000000000081526004016122c49190612cf8565b60405180910390fd5b505b5050505050565b606060405180602001604052806000815250905090565b60606122f882611989565b5060006123036122d6565b90506000815111612323576040518060200160405280600081525061234e565b8061232d846126aa565b60405160200161233e9291906139bd565b6040516020818303038152906040525b915050919050565b60007f01ffc9a7000000000000000000000000000000000000000000000000000000007bffffffffffffffffffffffffffffffffffffffffffffffffffffffff1916827bffffffffffffffffffffffffffffffffffffffffffffffffffffffff1916149050919050565b60006002600083815260200190815260200160002060009054906101000a900473ffffffffffffffffffffffffffffffffffffffff169050919050565b80806124365750600073ffffffffffffffffffffffffffffffffffffffff168273ffffffffffffffffffffffffffffffffffffffff1614155b1561256a57600061244684611989565b9050600073ffffffffffffffffffffffffffffffffffffffff168373ffffffffffffffffffffffffffffffffffffffff16141580156124b157508273ffffffffffffffffffffffffffffffffffffffff168173ffffffffffffffffffffffffffffffffffffffff1614155b80156124c457506124c2818461178d565b155b1561250657826040517fa9fbf51f0000000000000000000000000000000000000000000000000000000081526004016124fd9190612cf8565b60405180910390fd5b811561256857838573ffffffffffffffffffffffffffffffffffffffff168273ffffffffffffffffffffffffffffffffffffffff167f8c5be1e5ebec7d5bd14f71427d1e84f3dd0314c0f7b2291e5b200ac8c7c3b92560405160405180910390a45b505b836004600085815260200190815260200160002060006101000a81548173ffffffffffffffffffffffffffffffffffffffff021916908373ffffffffffffffffffffffffffffffffffffffff16021790555050505050565b6125cd838383612778565b61268157600073ffffffffffffffffffffffffffffffffffffffff168373ffffffffffffffffffffffffffffffffffffffff160361264257806040517f7e2732890000000000000000000000000000000000000000000000000000000081526004016126399190612ff2565b60405180910390fd5b81816040517f177e802f000000000000000000000000000000000000000000000000000000008152600401612678929190613b30565b60405180910390fd5b505050565b6126908383612839565b6126a561269b611a4e565b6000858585612125565b505050565b6060600060016126b984612932565b01905060008167ffffffffffffffff8111156126d8576126d7613017565b5b6040519080825280601f01601f19166020018201604052801561270a5781602001600182028036833780820191505090505b509050600082602001820190505b60011561276d578080600190039150507f3031323334353637383961626364656600000000000000000000000000000000600a86061a8153600a858161276157612760613b59565b5b04945060008503612718575b819350505050919050565b60008073ffffffffffffffffffffffffffffffffffffffff168373ffffffffffffffffffffffffffffffffffffffff161415801561283057508273ffffffffffffffffffffffffffffffffffffffff168473ffffffffffffffffffffffffffffffffffffffff1614806127f157506127f0848461178d565b5b8061282f57508273ffffffffffffffffffffffffffffffffffffffff1661281783611a11565b73ffffffffffffffffffffffffffffffffffffffff16145b5b90509392505050565b600073ffffffffffffffffffffffffffffffffffffffff168273ffffffffffffffffffffffffffffffffffffffff16036128ab5760006040517f64a0ae920000000000000000000000000000000000000000000000000000000081526004016128a29190612cf8565b60405180910390fd5b60006128b983836000611bd5565b9050600073ffffffffffffffffffffffffffffffffffffffff168173ffffffffffffffffffffffffffffffffffffffff161461292d5760006040517f73c6ac6e0000000000000000000000000000000000000000000000000000000081526004016129249190612cf8565b60405180910390fd5b505050565b600080600090507a184f03e93ff9f4daa797ed6e38ed64bf6a1f0100000000000000008310612990577a184f03e93ff9f4daa797ed6e38ed64bf6a1f010000000000000000838161298657612985613b59565b5b0492506040810190505b6d04ee2d6d415b85acef810000000083106129cd576d04ee2d6d415b85acef810000000083816129c3576129c2613b59565b5b0492506020810190505b662386f26fc1000083106129fc57662386f26fc1000083816129f2576129f1613b59565b5b0492506010810190505b6305f5e1008310612a25576305f5e1008381612a1b57612a1a613b59565b5b0492506008810190505b6127108310612a4a576127108381612a4057612a3f613b59565b5b0492506004810190505b60648310612a6d5760648381612a6357612a62613b59565b5b0492506002810190505b600a8310612a7c576001810190505b80915050919050565b6040518060c0016040528060008152602001600073ffffffffffffffffffffffffffffffffffffffff1681526020016060815260200160008152602001600015158152602001600081525090565b6000604051905090565b600080fd5b600080fd5b60007fffffffff0000000000000000000000000000000000000000000000000000000082169050919050565b612b1c81612ae7565b8114612b2757600080fd5b50565b600081359050612b3981612b13565b92915050565b600060208284031215612b5557612b54612add565b5b6000612b6384828501612b2a565b91505092915050565b60008115159050919050565b612b8181612b6c565b82525050565b6000602082019050612b9c6000830184612b78565b92915050565b600081519050919050565b600082825260208201905092915050565b60005b83811015612bdc578082015181840152602081019050612bc1565b60008484015250505050565b6000601f19601f8301169050919050565b6000612c0482612ba2565b612c0e8185612bad565b9350612c1e818560208601612bbe565b612c2781612be8565b840191505092915050565b60006020820190508181036000830152612c4c8184612bf9565b905092915050565b6000819050919050565b612c6781612c54565b8114612c7257600080fd5b50565b600081359050612c8481612c5e565b92915050565b600060208284031215612ca057612c9f612add565b5b6000612cae84828501612c75565b91505092915050565b600073ffffffffffffffffffffffffffffffffffffffff82169050919050565b6000612ce282612cb7565b9050919050565b612cf281612cd7565b82525050565b6000602082019050612d0d6000830184612ce9565b92915050565b612d1c81612cd7565b8114612d2757600080fd5b50565b600081359050612d3981612d13565b92915050565b60008060408385031215612d5657612d55612add565b5b6000612d6485828601612d2a565b9250506020612d7585828601612c75565b9150509250929050565b600080600060608486031215612d9857612d97612add565b5b6000612da686828701612d2a565b9350506020612db786828701612d2a565b9250506040612dc886828701612c75565b9150509250925092565b600060208284031215612de857612de7612add565b5b6000612df684828501612d2a565b91505092915050565b600081519050919050565b600082825260208201905092915050565b6000819050602082019050919050565b612e3481612c54565b82525050565b612e4381612cd7565b82525050565b600082825260208201905092915050565b6000612e6582612ba2565b612e6f8185612e49565b9350612e7f818560208601612bbe565b612e8881612be8565b840191505092915050565b612e9c81612b6c565b82525050565b600060c083016000830151612eba6000860182612e2b565b506020830151612ecd6020860182612e3a565b5060408301518482036040860152612ee58282612e5a565b9150506060830151612efa6060860182612e2b565b506080830151612f0d6080860182612e93565b5060a0830151612f2060a0860182612e2b565b508091505092915050565b6000612f378383612ea2565b905092915050565b6000602082019050919050565b6000612f5782612dff565b612f618185612e0a565b935083602082028501612f7385612e1b565b8060005b85811015612faf5784840389528151612f908582612f2b565b9450612f9b83612f3f565b925060208a01995050600181019050612f77565b50829750879550505050505092915050565b60006020820190508181036000830152612fdb8184612f4c565b905092915050565b612fec81612c54565b82525050565b60006020820190506130076000830184612fe3565b92915050565b600080fd5b600080fd5b7f4e487b7100000000000000000000000000000000000000000000000000000000600052604160045260246000fd5b61304f82612be8565b810181811067ffffffffffffffff8211171561306e5761306d613017565b5b80604052505050565b6000613081612ad3565b905061308d8282613046565b919050565b600067ffffffffffffffff8211156130ad576130ac613017565b5b6130b682612be8565b9050602081019050919050565b82818337600083830152505050565b60006130e56130e084613092565b613077565b90508281526020810184848401111561310157613100613012565b5b61310c8482856130c3565b509392505050565b600082601f8301126131295761312861300d565b5b81356131398482602086016130d2565b91505092915050565b6000806040838503121561315957613158612add565b5b600083013567ffffffffffffffff81111561317757613176612ae2565b5b61318385828601613114565b925050602061319485828601612c75565b9150509250929050565b6131a781612b6c565b81146131b257600080fd5b50565b6000813590506131c48161319e565b92915050565b600080604083850312156131e1576131e0612add565b5b60006131ef85828601612d2a565b9250506020613200858286016131b5565b9150509250929050565b600067ffffffffffffffff82111561322557613224613017565b5b61322e82612be8565b9050602081019050919050565b600061324e6132498461320a565b613077565b90508281526020810184848401111561326a57613269613012565b5b6132758482856130c3565b509392505050565b600082601f8301126132925761329161300d565b5b81356132a284826020860161323b565b91505092915050565b600080600080608085870312156132c5576132c4612add565b5b60006132d387828801612d2a565b94505060206132e487828801612d2a565b93505060406132f587828801612c75565b925050606085013567ffffffffffffffff81111561331657613315612ae2565b5b6133228782880161327d565b91505092959194509250565b600060c0820190506133436000830189612fe3565b6133506020830188612ce9565b81810360408301526133628187612bf9565b90506133716060830186612fe3565b61337e6080830185612b78565b61338b60a0830184612fe3565b979650505050505050565b600080604083850312156133ad576133ac612add565b5b60006133bb85828601612c75565b92505060206133cc85828601612c75565b9150509250929050565b600080604083850312156133ed576133ec612add565b5b60006133fb85828601612d2a565b925050602061340c85828601612d2a565b9150509250929050565b7f4e487b7100000000000000000000000000000000000000000000000000000000600052602260045260246000fd5b6000600282049050600182168061345d57607f821691505b6020821081036134705761346f613416565b5b50919050565b7f4e6f7420666f722073616c650000000000000000000000000000000000000000600082015250565b60006134ac600c83612bad565b91506134b782613476565b602082019050919050565b600060208201905081810360008301526134db8161349f565b9050919050565b7f496e73756666696369656e74207061796d656e74000000000000000000000000600082015250565b6000613518601483612bad565b9150613523826134e2565b602082019050919050565b600060208201905081810360008301526135478161350b565b9050919050565b7f596f7520616c7265616479206f776e2074686973206173736574000000000000600082015250565b6000613584601a83612bad565b915061358f8261354e565b602082019050919050565b600060208201905081810360008301526135b381613577565b9050919050565b60006060820190506135cf6000830186612ce9565b6135dc6020830185612fe3565b6135e96040830184612ce9565b949350505050565b7f4e487b7100000000000000000000000000000000000000000000000000000000600052601160045260246000fd5b600061362b82612c54565b91507fffffffffffffffffffffffffffffffffffffffffffffffffffffffffffffffff820361365d5761365c6135f1565b5b600182019050919050565b7f4e487b7100000000000000000000000000000000000000000000000000000000600052603260045260246000fd5b7f4e6f7420746865206f776e657200000000000000000000000000000000000000600082015250565b60006136cd600d83612bad565b91506136d882613697565b602082019050919050565b600060208201905081810360008301526136fc816136c0565b9050919050565b60008190508160005260206000209050919050565b60006020601f8301049050919050565b600082821b905092915050565b6000600883026137657fffffffffffffffffffffffffffffffffffffffffffffffffffffffffffffffff82613728565b61376f8683613728565b95508019841693508086168417925050509392505050565b6000819050919050565b60006137ac6137a76137a284612c54565b613787565b612c54565b9050919050565b6000819050919050565b6137c683613791565b6137da6137d2826137b3565b848454613735565b825550505050565b600090565b6137ef6137e2565b6137fa8184846137bd565b505050565b5b8181101561381e576138136000826137e7565b600181019050613800565b5050565b601f8211156138635761383481613703565b61383d84613718565b8101602085101561384c578190505b61386061385885613718565b8301826137ff565b50505b505050565b600082821c905092915050565b600061388660001984600802613868565b1980831691505092915050565b600061389f8383613875565b9150826002028217905092915050565b6138b882612ba2565b67ffffffffffffffff8111156138d1576138d0613017565b5b6138db8254613445565b6138e6828285613822565b600060209050601f8311600181146139195760008415613907578287015190505b6139118582613893565b865550613979565b601f19841661392786613703565b60005b8281101561394f5784890151825560018201915060208501945060208101905061392a565b8683101561396c5784890151613968601f891682613875565b8355505b6001600288020188555050505b505050505050565b600081905092915050565b600061399782612ba2565b6139a18185613981565b93506139b1818560208601612bbe565b80840191505092915050565b60006139c9828561398c565b91506139d5828461398c565b91508190509392505050565b7f5072696365206d7573742062652067726561746572207468616e203000000000600082015250565b6000613a17601c83612bad565b9150613a22826139e1565b602082019050919050565b60006020820190508181036000830152613a4681613a0a565b9050919050565b600081519050919050565b600082825260208201905092915050565b6000613a7482613a4d565b613a7e8185613a58565b9350613a8e818560208601612bbe565b613a9781612be8565b840191505092915050565b6000608082019050613ab76000830187612ce9565b613ac46020830186612ce9565b613ad16040830185612fe3565b8181036060830152613ae38184613a69565b905095945050505050565b600081519050613afd81612b13565b92915050565b600060208284031215613b1957613b18612add565b5b6000613b2784828501613aee565b91505092915050565b6000604082019050613b456000830185612ce9565b613b526020830184612fe3565b9392505050565b7f4e487b7100000000000000000000000000000000000000000000000000000000600052601260045260246000fdfea2646970667358221220ae40f230d9303b83d908ba2eee763a6dac4a8e03b41c4f6d3488b59212022e1664736f6c634300081c0033",
  "linkReferences": {},
  "deployedLinkReferences": {}
}